{
	"contracts/1_Storage.sol": {
		"SimpleStorage": {
			"abi": [
				{
					"inputs": [],
					"name": "retrieveAllPerson",
					"outputs": [
						{
							"components": [
								{
									"internalType": "uint256",
									"name": "key",
									"type": "uint256"
								},
								{
									"internalType": "string",
									"name": "nameOfPeople",
									"type": "string"
								},
								{
									"internalType": "int256",
									"name": "ageOfPeople",
									"type": "int256"
								}
							],
							"internalType": "struct SimpleStorage.People[]",
							"name": "",
							"type": "tuple[]"
						}
					],
					"stateMutability": "view",
					"type": "function"
				},
				{
					"inputs": [
						{
							"internalType": "uint256",
							"name": "_keyIdentifier",
							"type": "uint256"
						}
					],
					"name": "retrieveSinglePerson",
					"outputs": [
						{
							"components": [
								{
									"internalType": "uint256",
									"name": "key",
									"type": "uint256"
								},
								{
									"internalType": "string",
									"name": "nameOfPeople",
									"type": "string"
								},
								{
									"internalType": "int256",
									"name": "ageOfPeople",
									"type": "int256"
								}
							],
							"internalType": "struct SimpleStorage.People",
							"name": "",
							"type": "tuple"
						}
					],
					"stateMutability": "view",
					"type": "function"
				},
				{
					"inputs": [],
					"name": "retrieveTheCurrentKey",
					"outputs": [
						{
							"internalType": "uint256",
							"name": "",
							"type": "uint256"
						}
					],
					"stateMutability": "view",
					"type": "function"
				},
				{
					"inputs": [
						{
							"internalType": "string",
							"name": "_nameOfPeople",
							"type": "string"
						},
						{
							"internalType": "int256",
							"name": "_ageOfPeople",
							"type": "int256"
						}
					],
					"name": "storePerson",
					"outputs": [],
					"stateMutability": "nonpayable",
					"type": "function"
				}
			],
			"devdoc": {
				"kind": "dev",
				"methods": {},
				"version": 1
			},
			"evm": {
				"assembly": "    /* \"contracts/1_Storage.sol\":417:1319  contract SimpleStorage {... */\n  mstore(0x40, 0x80)\n  callvalue\n  dup1\n  iszero\n  tag_1\n  jumpi\n  0x00\n  dup1\n  revert\ntag_1:\n  pop\n  dataSize(sub_0)\n  dup1\n  dataOffset(sub_0)\n  0x00\n  codecopy\n  0x00\n  return\nstop\n\nsub_0: assembly {\n        /* \"contracts/1_Storage.sol\":417:1319  contract SimpleStorage {... */\n      mstore(0x40, 0x80)\n      callvalue\n      dup1\n      iszero\n      tag_1\n      jumpi\n      0x00\n      dup1\n      revert\n    tag_1:\n      pop\n      jumpi(tag_2, lt(calldatasize, 0x04))\n      shr(0xe0, calldataload(0x00))\n      dup1\n      0x54f75577\n      eq\n      tag_3\n      jumpi\n      dup1\n      0x73fa34fe\n      eq\n      tag_4\n      jumpi\n      dup1\n      0xa2db9ea9\n      eq\n      tag_5\n      jumpi\n      dup1\n      0xa42a773d\n      eq\n      tag_6\n      jumpi\n    tag_2:\n      0x00\n      dup1\n      revert\n        /* \"contracts/1_Storage.sol\":1028:1123  function retrieveAllPerson() public view returns(People[] memory){... */\n    tag_3:\n      tag_7\n      tag_8\n      jump\t// in\n    tag_7:\n      mload(0x40)\n      tag_9\n      swap2\n      swap1\n      tag_10\n      jump\t// in\n    tag_9:\n      mload(0x40)\n      dup1\n      swap2\n      sub\n      swap1\n      return\n        /* \"contracts/1_Storage.sol\":763:1022  function storePerson(string memory _nameOfPeople , int _ageOfPeople) public  {... */\n    tag_4:\n      tag_11\n      0x04\n      dup1\n      calldatasize\n      sub\n      dup2\n      add\n      swap1\n      tag_12\n      swap2\n      swap1\n      tag_13\n      jump\t// in\n    tag_12:\n      tag_14\n      jump\t// in\n    tag_11:\n      stop\n        /* \"contracts/1_Storage.sol\":662:757  function retrieveTheCurrentKey() public view returns(uint256){... */\n    tag_5:\n      tag_15\n      tag_16\n      jump\t// in\n    tag_15:\n      mload(0x40)\n      tag_17\n      swap2\n      swap1\n      tag_18\n      jump\t// in\n    tag_17:\n      mload(0x40)\n      dup1\n      swap2\n      sub\n      swap1\n      return\n        /* \"contracts/1_Storage.sol\":1130:1317  function retrieveSinglePerson(uint256 _keyIdentifier) public view returns (People memory) {... */\n    tag_6:\n      tag_19\n      0x04\n      dup1\n      calldatasize\n      sub\n      dup2\n      add\n      swap1\n      tag_20\n      swap2\n      swap1\n      tag_21\n      jump\t// in\n    tag_20:\n      tag_22\n      jump\t// in\n    tag_19:\n      mload(0x40)\n      tag_23\n      swap2\n      swap1\n      tag_24\n      jump\t// in\n    tag_23:\n      mload(0x40)\n      dup1\n      swap2\n      sub\n      swap1\n      return\n        /* \"contracts/1_Storage.sol\":1028:1123  function retrieveAllPerson() public view returns(People[] memory){... */\n    tag_8:\n        /* \"contracts/1_Storage.sol\":1077:1092  People[] memory */\n      0x60\n        /* \"contracts/1_Storage.sol\":1110:1116  people */\n      0x01\n        /* \"contracts/1_Storage.sol\":1103:1116  return people */\n      dup1\n      sload\n      dup1\n      0x20\n      mul\n      0x20\n      add\n      mload(0x40)\n      swap1\n      dup2\n      add\n      0x40\n      mstore\n      dup1\n      swap3\n      swap2\n      swap1\n      dup2\n      dup2\n      mstore\n      0x20\n      add\n      0x00\n      swap1\n    tag_26:\n      dup3\n      dup3\n      lt\n      iszero\n      tag_27\n      jumpi\n      dup4\n      dup3\n      swap1\n      0x00\n      mstore\n      keccak256(0x00, 0x20)\n      swap1\n      0x03\n      mul\n      add\n      mload(0x40)\n      dup1\n      0x60\n      add\n      0x40\n      mstore\n      swap1\n      dup2\n      0x00\n      dup3\n      add\n      sload\n      dup2\n      mstore\n      0x20\n      add\n      0x01\n      dup3\n      add\n      dup1\n      sload\n      tag_29\n      swap1\n      tag_30\n      jump\t// in\n    tag_29:\n      dup1\n      0x1f\n      add\n      0x20\n      dup1\n      swap2\n      div\n      mul\n      0x20\n      add\n      mload(0x40)\n      swap1\n      dup2\n      add\n      0x40\n      mstore\n      dup1\n      swap3\n      swap2\n      swap1\n      dup2\n      dup2\n      mstore\n      0x20\n      add\n      dup3\n      dup1\n      sload\n      tag_31\n      swap1\n      tag_30\n      jump\t// in\n    tag_31:\n      dup1\n      iszero\n      tag_32\n      jumpi\n      dup1\n      0x1f\n      lt\n      tag_33\n      jumpi\n      0x0100\n      dup1\n      dup4\n      sload\n      div\n      mul\n      dup4\n      mstore\n      swap2\n      0x20\n      add\n      swap2\n      jump(tag_32)\n    tag_33:\n      dup3\n      add\n      swap2\n      swap1\n      0x00\n      mstore\n      keccak256(0x00, 0x20)\n      swap1\n    tag_34:\n      dup2\n      sload\n      dup2\n      mstore\n      swap1\n      0x01\n      add\n      swap1\n      0x20\n      add\n      dup1\n      dup4\n      gt\n      tag_34\n      jumpi\n      dup3\n      swap1\n      sub\n      0x1f\n      and\n      dup3\n      add\n      swap2\n    tag_32:\n      pop\n      pop\n      pop\n      pop\n      pop\n      dup2\n      mstore\n      0x20\n      add\n      0x02\n      dup3\n      add\n      sload\n      dup2\n      mstore\n      pop\n      pop\n      dup2\n      mstore\n      0x20\n      add\n      swap1\n      0x01\n      add\n      swap1\n      jump(tag_26)\n    tag_27:\n      pop\n      pop\n      pop\n      pop\n      swap1\n      pop\n        /* \"contracts/1_Storage.sol\":1028:1123  function retrieveAllPerson() public view returns(People[] memory){... */\n      swap1\n      jump\t// out\n        /* \"contracts/1_Storage.sol\":763:1022  function storePerson(string memory _nameOfPeople , int _ageOfPeople) public  {... */\n    tag_14:\n        /* \"contracts/1_Storage.sol\":848:871  People memory newPerson */\n      0x00\n        /* \"contracts/1_Storage.sol\":874:921  People(currentKey,_nameOfPeople , _ageOfPeople) */\n      mload(0x40)\n      dup1\n      0x60\n      add\n      0x40\n      mstore\n      dup1\n        /* \"contracts/1_Storage.sol\":881:891  currentKey */\n      sload(0x00)\n        /* \"contracts/1_Storage.sol\":874:921  People(currentKey,_nameOfPeople , _ageOfPeople) */\n      dup2\n      mstore\n      0x20\n      add\n        /* \"contracts/1_Storage.sol\":892:905  _nameOfPeople */\n      dup5\n        /* \"contracts/1_Storage.sol\":874:921  People(currentKey,_nameOfPeople , _ageOfPeople) */\n      dup2\n      mstore\n      0x20\n      add\n        /* \"contracts/1_Storage.sol\":908:920  _ageOfPeople */\n      dup4\n        /* \"contracts/1_Storage.sol\":874:921  People(currentKey,_nameOfPeople , _ageOfPeople) */\n      dup2\n      mstore\n      pop\n        /* \"contracts/1_Storage.sol\":848:921  People memory newPerson = People(currentKey,_nameOfPeople , _ageOfPeople) */\n      swap1\n      pop\n        /* \"contracts/1_Storage.sol\":929:935  people */\n      0x01\n        /* \"contracts/1_Storage.sol\":941:950  newPerson */\n      dup2\n        /* \"contracts/1_Storage.sol\":929:951  people.push(newPerson) */\n      swap1\n      dup1\n      0x01\n      dup2\n      sload\n      add\n      dup1\n      dup3\n      sstore\n      dup1\n      swap2\n      pop\n      pop\n      0x01\n      swap1\n      sub\n      swap1\n      0x00\n      mstore\n      keccak256(0x00, 0x20)\n      swap1\n      0x03\n      mul\n      add\n      0x00\n      swap1\n      swap2\n      swap1\n      swap2\n      swap1\n      swap2\n      pop\n      0x00\n      dup3\n      add\n      mload\n      dup2\n      0x00\n      add\n      sstore\n      0x20\n      dup3\n      add\n      mload\n      dup2\n      0x01\n      add\n      swap1\n      dup2\n      tag_37\n      swap2\n      swap1\n      tag_38\n      jump\t// in\n    tag_37:\n      pop\n      0x40\n      dup3\n      add\n      mload\n      dup2\n      0x02\n      add\n      sstore\n      pop\n      pop\n        /* \"contracts/1_Storage.sol\":986:995  newPerson */\n      dup1\n        /* \"contracts/1_Storage.sol\":959:971  nameOfPeople */\n      0x02\n        /* \"contracts/1_Storage.sol\":959:983  nameOfPeople[currentKey] */\n      0x00\n        /* \"contracts/1_Storage.sol\":972:982  currentKey */\n      dup1\n      sload\n        /* \"contracts/1_Storage.sol\":959:983  nameOfPeople[currentKey] */\n      dup2\n      mstore\n      0x20\n      add\n      swap1\n      dup2\n      mstore\n      0x20\n      add\n      0x00\n      keccak256\n        /* \"contracts/1_Storage.sol\":959:995  nameOfPeople[currentKey] = newPerson */\n      0x00\n      dup3\n      add\n      mload\n      dup2\n      0x00\n      add\n      sstore\n      0x20\n      dup3\n      add\n      mload\n      dup2\n      0x01\n      add\n      swap1\n      dup2\n      tag_39\n      swap2\n      swap1\n      tag_38\n      jump\t// in\n    tag_39:\n      pop\n      0x40\n      dup3\n      add\n      mload\n      dup2\n      0x02\n      add\n      sstore\n      swap1\n      pop\n      pop\n        /* \"contracts/1_Storage.sol\":1003:1013  currentKey */\n      0x00\n      dup1\n        /* \"contracts/1_Storage.sol\":1003:1015  currentKey++ */\n      dup2\n      sload\n      dup1\n      swap3\n      swap2\n      swap1\n      tag_40\n      swap1\n      tag_41\n      jump\t// in\n    tag_40:\n      swap2\n      swap1\n      pop\n      sstore\n      pop\n        /* \"contracts/1_Storage.sol\":840:1022  {... */\n      pop\n        /* \"contracts/1_Storage.sol\":763:1022  function storePerson(string memory _nameOfPeople , int _ageOfPeople) public  {... */\n      pop\n      pop\n      jump\t// out\n        /* \"contracts/1_Storage.sol\":662:757  function retrieveTheCurrentKey() public view returns(uint256){... */\n    tag_16:\n        /* \"contracts/1_Storage.sol\":715:722  uint256 */\n      0x00\n        /* \"contracts/1_Storage.sol\":740:750  currentKey */\n      dup1\n      sload\n        /* \"contracts/1_Storage.sol\":733:750  return currentKey */\n      swap1\n      pop\n        /* \"contracts/1_Storage.sol\":662:757  function retrieveTheCurrentKey() public view returns(uint256){... */\n      swap1\n      jump\t// out\n        /* \"contracts/1_Storage.sol\":1130:1317  function retrieveSinglePerson(uint256 _keyIdentifier) public view returns (People memory) {... */\n    tag_22:\n        /* \"contracts/1_Storage.sol\":1205:1218  People memory */\n      tag_43\n      tag_44\n      jump\t// in\n    tag_43:\n        /* \"contracts/1_Storage.sol\":1237:1249  nameOfPeople */\n      0x02\n        /* \"contracts/1_Storage.sol\":1237:1265  nameOfPeople[_keyIdentifier] */\n      0x00\n        /* \"contracts/1_Storage.sol\":1250:1264  _keyIdentifier */\n      dup4\n        /* \"contracts/1_Storage.sol\":1237:1265  nameOfPeople[_keyIdentifier] */\n      dup2\n      mstore\n      0x20\n      add\n      swap1\n      dup2\n      mstore\n      0x20\n      add\n      0x00\n      keccak256\n        /* \"contracts/1_Storage.sol\":1230:1265  return nameOfPeople[_keyIdentifier] */\n      mload(0x40)\n      dup1\n      0x60\n      add\n      0x40\n      mstore\n      swap1\n      dup2\n      0x00\n      dup3\n      add\n      sload\n      dup2\n      mstore\n      0x20\n      add\n      0x01\n      dup3\n      add\n      dup1\n      sload\n      tag_46\n      swap1\n      tag_30\n      jump\t// in\n    tag_46:\n      dup1\n      0x1f\n      add\n      0x20\n      dup1\n      swap2\n      div\n      mul\n      0x20\n      add\n      mload(0x40)\n      swap1\n      dup2\n      add\n      0x40\n      mstore\n      dup1\n      swap3\n      swap2\n      swap1\n      dup2\n      dup2\n      mstore\n      0x20\n      add\n      dup3\n      dup1\n      sload\n      tag_47\n      swap1\n      tag_30\n      jump\t// in\n    tag_47:\n      dup1\n      iszero\n      tag_48\n      jumpi\n      dup1\n      0x1f\n      lt\n      tag_49\n      jumpi\n      0x0100\n      dup1\n      dup4\n      sload\n      div\n      mul\n      dup4\n      mstore\n      swap2\n      0x20\n      add\n      swap2\n      jump(tag_48)\n    tag_49:\n      dup3\n      add\n      swap2\n      swap1\n      0x00\n      mstore\n      keccak256(0x00, 0x20)\n      swap1\n    tag_50:\n      dup2\n      sload\n      dup2\n      mstore\n      swap1\n      0x01\n      add\n      swap1\n      0x20\n      add\n      dup1\n      dup4\n      gt\n      tag_50\n      jumpi\n      dup3\n      swap1\n      sub\n      0x1f\n      and\n      dup3\n      add\n      swap2\n    tag_48:\n      pop\n      pop\n      pop\n      pop\n      pop\n      dup2\n      mstore\n      0x20\n      add\n      0x02\n      dup3\n      add\n      sload\n      dup2\n      mstore\n      pop\n      pop\n      swap1\n      pop\n        /* \"contracts/1_Storage.sol\":1130:1317  function retrieveSinglePerson(uint256 _keyIdentifier) public view returns (People memory) {... */\n      swap2\n      swap1\n      pop\n      jump\t// out\n    tag_44:\n      mload(0x40)\n      dup1\n      0x60\n      add\n      0x40\n      mstore\n      dup1\n      0x00\n      dup2\n      mstore\n      0x20\n      add\n      0x60\n      dup2\n      mstore\n      0x20\n      add\n      0x00\n      dup2\n      mstore\n      pop\n      swap1\n      jump\t// out\n        /* \"#utility.yul\":7:143   */\n    tag_51:\n        /* \"#utility.yul\":96:102   */\n      0x00\n        /* \"#utility.yul\":130:135   */\n      dup2\n        /* \"#utility.yul\":124:136   */\n      mload\n        /* \"#utility.yul\":114:136   */\n      swap1\n      pop\n        /* \"#utility.yul\":7:143   */\n      swap2\n      swap1\n      pop\n      jump\t// out\n        /* \"#utility.yul\":149:355   */\n    tag_52:\n        /* \"#utility.yul\":270:281   */\n      0x00\n        /* \"#utility.yul\":304:310   */\n      dup3\n        /* \"#utility.yul\":299:302   */\n      dup3\n        /* \"#utility.yul\":292:311   */\n      mstore\n        /* \"#utility.yul\":344:348   */\n      0x20\n        /* \"#utility.yul\":339:342   */\n      dup3\n        /* \"#utility.yul\":335:349   */\n      add\n        /* \"#utility.yul\":320:349   */\n      swap1\n      pop\n        /* \"#utility.yul\":149:355   */\n      swap3\n      swap2\n      pop\n      pop\n      jump\t// out\n        /* \"#utility.yul\":361:515   */\n    tag_53:\n        /* \"#utility.yul\":450:454   */\n      0x00\n        /* \"#utility.yul\":473:476   */\n      dup2\n        /* \"#utility.yul\":465:476   */\n      swap1\n      pop\n        /* \"#utility.yul\":503:507   */\n      0x20\n        /* \"#utility.yul\":498:501   */\n      dup3\n        /* \"#utility.yul\":494:508   */\n      add\n        /* \"#utility.yul\":486:508   */\n      swap1\n      pop\n        /* \"#utility.yul\":361:515   */\n      swap2\n      swap1\n      pop\n      jump\t// out\n        /* \"#utility.yul\":521:598   */\n    tag_54:\n        /* \"#utility.yul\":558:565   */\n      0x00\n        /* \"#utility.yul\":587:592   */\n      dup2\n        /* \"#utility.yul\":576:592   */\n      swap1\n      pop\n        /* \"#utility.yul\":521:598   */\n      swap2\n      swap1\n      pop\n      jump\t// out\n        /* \"#utility.yul\":604:712   */\n    tag_55:\n        /* \"#utility.yul\":681:705   */\n      tag_108\n        /* \"#utility.yul\":699:704   */\n      dup2\n        /* \"#utility.yul\":681:705   */\n      tag_54\n      jump\t// in\n    tag_108:\n        /* \"#utility.yul\":676:679   */\n      dup3\n        /* \"#utility.yul\":669:706   */\n      mstore\n        /* \"#utility.yul\":604:712   */\n      pop\n      pop\n      jump\t// out\n        /* \"#utility.yul\":718:817   */\n    tag_56:\n        /* \"#utility.yul\":770:776   */\n      0x00\n        /* \"#utility.yul\":804:809   */\n      dup2\n        /* \"#utility.yul\":798:810   */\n      mload\n        /* \"#utility.yul\":788:810   */\n      swap1\n      pop\n        /* \"#utility.yul\":718:817   */\n      swap2\n      swap1\n      pop\n      jump\t// out\n        /* \"#utility.yul\":823:982   */\n    tag_57:\n        /* \"#utility.yul\":897:908   */\n      0x00\n        /* \"#utility.yul\":931:937   */\n      dup3\n        /* \"#utility.yul\":926:929   */\n      dup3\n        /* \"#utility.yul\":919:938   */\n      mstore\n        /* \"#utility.yul\":971:975   */\n      0x20\n        /* \"#utility.yul\":966:969   */\n      dup3\n        /* \"#utility.yul\":962:976   */\n      add\n        /* \"#utility.yul\":947:976   */\n      swap1\n      pop\n        /* \"#utility.yul\":823:982   */\n      swap3\n      swap2\n      pop\n      pop\n      jump\t// out\n        /* \"#utility.yul\":988:1234   */\n    tag_58:\n        /* \"#utility.yul\":1069:1070   */\n      0x00\n        /* \"#utility.yul\":1079:1192   */\n    tag_112:\n        /* \"#utility.yul\":1093:1099   */\n      dup4\n        /* \"#utility.yul\":1090:1091   */\n      dup2\n        /* \"#utility.yul\":1087:1100   */\n      lt\n        /* \"#utility.yul\":1079:1192   */\n      iszero\n      tag_114\n      jumpi\n        /* \"#utility.yul\":1178:1179   */\n      dup1\n        /* \"#utility.yul\":1173:1176   */\n      dup3\n        /* \"#utility.yul\":1169:1180   */\n      add\n        /* \"#utility.yul\":1163:1181   */\n      mload\n        /* \"#utility.yul\":1159:1160   */\n      dup2\n        /* \"#utility.yul\":1154:1157   */\n      dup5\n        /* \"#utility.yul\":1150:1161   */\n      add\n        /* \"#utility.yul\":1143:1182   */\n      mstore\n        /* \"#utility.yul\":1115:1117   */\n      0x20\n        /* \"#utility.yul\":1112:1113   */\n      dup2\n        /* \"#utility.yul\":1108:1118   */\n      add\n        /* \"#utility.yul\":1103:1118   */\n      swap1\n      pop\n        /* \"#utility.yul\":1079:1192   */\n      jump(tag_112)\n    tag_114:\n        /* \"#utility.yul\":1226:1227   */\n      0x00\n        /* \"#utility.yul\":1217:1223   */\n      dup5\n        /* \"#utility.yul\":1212:1215   */\n      dup5\n        /* \"#utility.yul\":1208:1224   */\n      add\n        /* \"#utility.yul\":1201:1228   */\n      mstore\n        /* \"#utility.yul\":1050:1234   */\n      pop\n        /* \"#utility.yul\":988:1234   */\n      pop\n      pop\n      pop\n      jump\t// out\n        /* \"#utility.yul\":1240:1342   */\n    tag_59:\n        /* \"#utility.yul\":1281:1287   */\n      0x00\n        /* \"#utility.yul\":1332:1334   */\n      0x1f\n        /* \"#utility.yul\":1328:1335   */\n      not\n        /* \"#utility.yul\":1323:1325   */\n      0x1f\n        /* \"#utility.yul\":1316:1321   */\n      dup4\n        /* \"#utility.yul\":1312:1326   */\n      add\n        /* \"#utility.yul\":1308:1336   */\n      and\n        /* \"#utility.yul\":1298:1336   */\n      swap1\n      pop\n        /* \"#utility.yul\":1240:1342   */\n      swap2\n      swap1\n      pop\n      jump\t// out\n        /* \"#utility.yul\":1348:1705   */\n    tag_60:\n        /* \"#utility.yul\":1426:1429   */\n      0x00\n        /* \"#utility.yul\":1454:1493   */\n      tag_117\n        /* \"#utility.yul\":1487:1492   */\n      dup3\n        /* \"#utility.yul\":1454:1493   */\n      tag_56\n      jump\t// in\n    tag_117:\n        /* \"#utility.yul\":1509:1570   */\n      tag_118\n        /* \"#utility.yul\":1563:1569   */\n      dup2\n        /* \"#utility.yul\":1558:1561   */\n      dup6\n        /* \"#utility.yul\":1509:1570   */\n      tag_57\n      jump\t// in\n    tag_118:\n        /* \"#utility.yul\":1502:1570   */\n      swap4\n      pop\n        /* \"#utility.yul\":1579:1644   */\n      tag_119\n        /* \"#utility.yul\":1637:1643   */\n      dup2\n        /* \"#utility.yul\":1632:1635   */\n      dup6\n        /* \"#utility.yul\":1625:1629   */\n      0x20\n        /* \"#utility.yul\":1618:1623   */\n      dup7\n        /* \"#utility.yul\":1614:1630   */\n      add\n        /* \"#utility.yul\":1579:1644   */\n      tag_58\n      jump\t// in\n    tag_119:\n        /* \"#utility.yul\":1669:1698   */\n      tag_120\n        /* \"#utility.yul\":1691:1697   */\n      dup2\n        /* \"#utility.yul\":1669:1698   */\n      tag_59\n      jump\t// in\n    tag_120:\n        /* \"#utility.yul\":1664:1667   */\n      dup5\n        /* \"#utility.yul\":1660:1699   */\n      add\n        /* \"#utility.yul\":1653:1699   */\n      swap2\n      pop\n        /* \"#utility.yul\":1430:1705   */\n      pop\n        /* \"#utility.yul\":1348:1705   */\n      swap3\n      swap2\n      pop\n      pop\n      jump\t// out\n        /* \"#utility.yul\":1711:1787   */\n    tag_61:\n        /* \"#utility.yul\":1747:1754   */\n      0x00\n        /* \"#utility.yul\":1776:1781   */\n      dup2\n        /* \"#utility.yul\":1765:1781   */\n      swap1\n      pop\n        /* \"#utility.yul\":1711:1787   */\n      swap2\n      swap1\n      pop\n      jump\t// out\n        /* \"#utility.yul\":1793:1898   */\n    tag_62:\n        /* \"#utility.yul\":1868:1891   */\n      tag_123\n        /* \"#utility.yul\":1885:1890   */\n      dup2\n        /* \"#utility.yul\":1868:1891   */\n      tag_61\n      jump\t// in\n    tag_123:\n        /* \"#utility.yul\":1863:1866   */\n      dup3\n        /* \"#utility.yul\":1856:1892   */\n      mstore\n        /* \"#utility.yul\":1793:1898   */\n      pop\n      pop\n      jump\t// out\n        /* \"#utility.yul\":1970:2746   */\n    tag_63:\n        /* \"#utility.yul\":2073:2076   */\n      0x00\n        /* \"#utility.yul\":2109:2113   */\n      0x60\n        /* \"#utility.yul\":2104:2107   */\n      dup4\n        /* \"#utility.yul\":2100:2114   */\n      add\n        /* \"#utility.yul\":2195:2199   */\n      0x00\n        /* \"#utility.yul\":2188:2193   */\n      dup4\n        /* \"#utility.yul\":2184:2200   */\n      add\n        /* \"#utility.yul\":2178:2201   */\n      mload\n        /* \"#utility.yul\":2214:2277   */\n      tag_125\n        /* \"#utility.yul\":2271:2275   */\n      0x00\n        /* \"#utility.yul\":2266:2269   */\n      dup7\n        /* \"#utility.yul\":2262:2276   */\n      add\n        /* \"#utility.yul\":2248:2260   */\n      dup3\n        /* \"#utility.yul\":2214:2277   */\n      tag_55\n      jump\t// in\n    tag_125:\n        /* \"#utility.yul\":2124:2287   */\n      pop\n        /* \"#utility.yul\":2377:2381   */\n      0x20\n        /* \"#utility.yul\":2370:2375   */\n      dup4\n        /* \"#utility.yul\":2366:2382   */\n      add\n        /* \"#utility.yul\":2360:2383   */\n      mload\n        /* \"#utility.yul\":2430:2433   */\n      dup5\n        /* \"#utility.yul\":2424:2428   */\n      dup3\n        /* \"#utility.yul\":2420:2434   */\n      sub\n        /* \"#utility.yul\":2413:2417   */\n      0x20\n        /* \"#utility.yul\":2408:2411   */\n      dup7\n        /* \"#utility.yul\":2404:2418   */\n      add\n        /* \"#utility.yul\":2397:2435   */\n      mstore\n        /* \"#utility.yul\":2456:2529   */\n      tag_126\n        /* \"#utility.yul\":2524:2528   */\n      dup3\n        /* \"#utility.yul\":2510:2522   */\n      dup3\n        /* \"#utility.yul\":2456:2529   */\n      tag_60\n      jump\t// in\n    tag_126:\n        /* \"#utility.yul\":2448:2529   */\n      swap2\n      pop\n        /* \"#utility.yul\":2297:2540   */\n      pop\n        /* \"#utility.yul\":2629:2633   */\n      0x40\n        /* \"#utility.yul\":2622:2627   */\n      dup4\n        /* \"#utility.yul\":2618:2634   */\n      add\n        /* \"#utility.yul\":2612:2635   */\n      mload\n        /* \"#utility.yul\":2648:2709   */\n      tag_127\n        /* \"#utility.yul\":2703:2707   */\n      0x40\n        /* \"#utility.yul\":2698:2701   */\n      dup7\n        /* \"#utility.yul\":2694:2708   */\n      add\n        /* \"#utility.yul\":2680:2692   */\n      dup3\n        /* \"#utility.yul\":2648:2709   */\n      tag_62\n      jump\t// in\n    tag_127:\n        /* \"#utility.yul\":2550:2719   */\n      pop\n        /* \"#utility.yul\":2736:2740   */\n      dup1\n        /* \"#utility.yul\":2729:2740   */\n      swap2\n      pop\n        /* \"#utility.yul\":2078:2746   */\n      pop\n        /* \"#utility.yul\":1970:2746   */\n      swap3\n      swap2\n      pop\n      pop\n      jump\t// out\n        /* \"#utility.yul\":2752:2996   */\n    tag_64:\n        /* \"#utility.yul\":2865:2875   */\n      0x00\n        /* \"#utility.yul\":2900:2990   */\n      tag_129\n        /* \"#utility.yul\":2986:2989   */\n      dup4\n        /* \"#utility.yul\":2978:2984   */\n      dup4\n        /* \"#utility.yul\":2900:2990   */\n      tag_63\n      jump\t// in\n    tag_129:\n        /* \"#utility.yul\":2886:2990   */\n      swap1\n      pop\n        /* \"#utility.yul\":2752:2996   */\n      swap3\n      swap2\n      pop\n      pop\n      jump\t// out\n        /* \"#utility.yul\":3002:3137   */\n    tag_65:\n        /* \"#utility.yul\":3094:3098   */\n      0x00\n        /* \"#utility.yul\":3126:3130   */\n      0x20\n        /* \"#utility.yul\":3121:3124   */\n      dup3\n        /* \"#utility.yul\":3117:3131   */\n      add\n        /* \"#utility.yul\":3109:3131   */\n      swap1\n      pop\n        /* \"#utility.yul\":3002:3137   */\n      swap2\n      swap1\n      pop\n      jump\t// out\n        /* \"#utility.yul\":3213:4300   */\n    tag_66:\n        /* \"#utility.yul\":3376:3379   */\n      0x00\n        /* \"#utility.yul\":3405:3481   */\n      tag_132\n        /* \"#utility.yul\":3475:3480   */\n      dup3\n        /* \"#utility.yul\":3405:3481   */\n      tag_51\n      jump\t// in\n    tag_132:\n        /* \"#utility.yul\":3497:3605   */\n      tag_133\n        /* \"#utility.yul\":3598:3604   */\n      dup2\n        /* \"#utility.yul\":3593:3596   */\n      dup6\n        /* \"#utility.yul\":3497:3605   */\n      tag_52\n      jump\t// in\n    tag_133:\n        /* \"#utility.yul\":3490:3605   */\n      swap4\n      pop\n        /* \"#utility.yul\":3631:3634   */\n      dup4\n        /* \"#utility.yul\":3676:3680   */\n      0x20\n        /* \"#utility.yul\":3668:3674   */\n      dup3\n        /* \"#utility.yul\":3664:3681   */\n      mul\n        /* \"#utility.yul\":3659:3662   */\n      dup6\n        /* \"#utility.yul\":3655:3682   */\n      add\n        /* \"#utility.yul\":3706:3784   */\n      tag_134\n        /* \"#utility.yul\":3778:3783   */\n      dup6\n        /* \"#utility.yul\":3706:3784   */\n      tag_53\n      jump\t// in\n    tag_134:\n        /* \"#utility.yul\":3807:3814   */\n      dup1\n        /* \"#utility.yul\":3838:3839   */\n      0x00\n        /* \"#utility.yul\":3823:4255   */\n    tag_135:\n        /* \"#utility.yul\":3848:3854   */\n      dup6\n        /* \"#utility.yul\":3845:3846   */\n      dup2\n        /* \"#utility.yul\":3842:3855   */\n      lt\n        /* \"#utility.yul\":3823:4255   */\n      iszero\n      tag_137\n      jumpi\n        /* \"#utility.yul\":3919:3928   */\n      dup5\n        /* \"#utility.yul\":3913:3917   */\n      dup5\n        /* \"#utility.yul\":3909:3929   */\n      sub\n        /* \"#utility.yul\":3904:3907   */\n      dup10\n        /* \"#utility.yul\":3897:3930   */\n      mstore\n        /* \"#utility.yul\":3970:3976   */\n      dup2\n        /* \"#utility.yul\":3964:3977   */\n      mload\n        /* \"#utility.yul\":3998:4106   */\n      tag_138\n        /* \"#utility.yul\":4101:4105   */\n      dup6\n        /* \"#utility.yul\":4086:4099   */\n      dup3\n        /* \"#utility.yul\":3998:4106   */\n      tag_64\n      jump\t// in\n    tag_138:\n        /* \"#utility.yul\":3990:4106   */\n      swap5\n      pop\n        /* \"#utility.yul\":4129:4211   */\n      tag_139\n        /* \"#utility.yul\":4204:4210   */\n      dup4\n        /* \"#utility.yul\":4129:4211   */\n      tag_65\n      jump\t// in\n    tag_139:\n        /* \"#utility.yul\":4119:4211   */\n      swap3\n      pop\n        /* \"#utility.yul\":4240:4244   */\n      0x20\n        /* \"#utility.yul\":4235:4238   */\n      dup11\n        /* \"#utility.yul\":4231:4245   */\n      add\n        /* \"#utility.yul\":4224:4245   */\n      swap10\n      pop\n        /* \"#utility.yul\":3883:4255   */\n      pop\n        /* \"#utility.yul\":3870:3871   */\n      0x01\n        /* \"#utility.yul\":3867:3868   */\n      dup2\n        /* \"#utility.yul\":3863:3872   */\n      add\n        /* \"#utility.yul\":3858:3872   */\n      swap1\n      pop\n        /* \"#utility.yul\":3823:4255   */\n      jump(tag_135)\n    tag_137:\n        /* \"#utility.yul\":3827:3841   */\n      pop\n        /* \"#utility.yul\":4271:4275   */\n      dup3\n        /* \"#utility.yul\":4264:4275   */\n      swap8\n      pop\n        /* \"#utility.yul\":4291:4294   */\n      dup8\n        /* \"#utility.yul\":4284:4294   */\n      swap6\n      pop\n        /* \"#utility.yul\":3381:4300   */\n      pop\n      pop\n      pop\n      pop\n      pop\n        /* \"#utility.yul\":3213:4300   */\n      swap3\n      swap2\n      pop\n      pop\n      jump\t// out\n        /* \"#utility.yul\":4306:4767   */\n    tag_10:\n        /* \"#utility.yul\":4493:4497   */\n      0x00\n        /* \"#utility.yul\":4531:4533   */\n      0x20\n        /* \"#utility.yul\":4520:4529   */\n      dup3\n        /* \"#utility.yul\":4516:4534   */\n      add\n        /* \"#utility.yul\":4508:4534   */\n      swap1\n      pop\n        /* \"#utility.yul\":4580:4589   */\n      dup2\n        /* \"#utility.yul\":4574:4578   */\n      dup2\n        /* \"#utility.yul\":4570:4590   */\n      sub\n        /* \"#utility.yul\":4566:4567   */\n      0x00\n        /* \"#utility.yul\":4555:4564   */\n      dup4\n        /* \"#utility.yul\":4551:4568   */\n      add\n        /* \"#utility.yul\":4544:4591   */\n      mstore\n        /* \"#utility.yul\":4608:4760   */\n      tag_141\n        /* \"#utility.yul\":4755:4759   */\n      dup2\n        /* \"#utility.yul\":4746:4752   */\n      dup5\n        /* \"#utility.yul\":4608:4760   */\n      tag_66\n      jump\t// in\n    tag_141:\n        /* \"#utility.yul\":4600:4760   */\n      swap1\n      pop\n        /* \"#utility.yul\":4306:4767   */\n      swap3\n      swap2\n      pop\n      pop\n      jump\t// out\n        /* \"#utility.yul\":4773:4848   */\n    tag_67:\n        /* \"#utility.yul\":4806:4812   */\n      0x00\n        /* \"#utility.yul\":4839:4841   */\n      0x40\n        /* \"#utility.yul\":4833:4842   */\n      mload\n        /* \"#utility.yul\":4823:4842   */\n      swap1\n      pop\n        /* \"#utility.yul\":4773:4848   */\n      swap1\n      jump\t// out\n        /* \"#utility.yul\":4854:4971   */\n    tag_68:\n        /* \"#utility.yul\":4963:4964   */\n      0x00\n        /* \"#utility.yul\":4960:4961   */\n      dup1\n        /* \"#utility.yul\":4953:4965   */\n      revert\n        /* \"#utility.yul\":4977:5094   */\n    tag_69:\n        /* \"#utility.yul\":5086:5087   */\n      0x00\n        /* \"#utility.yul\":5083:5084   */\n      dup1\n        /* \"#utility.yul\":5076:5088   */\n      revert\n        /* \"#utility.yul\":5100:5217   */\n    tag_70:\n        /* \"#utility.yul\":5209:5210   */\n      0x00\n        /* \"#utility.yul\":5206:5207   */\n      dup1\n        /* \"#utility.yul\":5199:5211   */\n      revert\n        /* \"#utility.yul\":5223:5340   */\n    tag_71:\n        /* \"#utility.yul\":5332:5333   */\n      0x00\n        /* \"#utility.yul\":5329:5330   */\n      dup1\n        /* \"#utility.yul\":5322:5334   */\n      revert\n        /* \"#utility.yul\":5346:5526   */\n    tag_72:\n        /* \"#utility.yul\":5394:5471   */\n      0x4e487b7100000000000000000000000000000000000000000000000000000000\n        /* \"#utility.yul\":5391:5392   */\n      0x00\n        /* \"#utility.yul\":5384:5472   */\n      mstore\n        /* \"#utility.yul\":5491:5495   */\n      0x41\n        /* \"#utility.yul\":5488:5489   */\n      0x04\n        /* \"#utility.yul\":5481:5496   */\n      mstore\n        /* \"#utility.yul\":5515:5519   */\n      0x24\n        /* \"#utility.yul\":5512:5513   */\n      0x00\n        /* \"#utility.yul\":5505:5520   */\n      revert\n        /* \"#utility.yul\":5532:5813   */\n    tag_73:\n        /* \"#utility.yul\":5615:5642   */\n      tag_149\n        /* \"#utility.yul\":5637:5641   */\n      dup3\n        /* \"#utility.yul\":5615:5642   */\n      tag_59\n      jump\t// in\n    tag_149:\n        /* \"#utility.yul\":5607:5613   */\n      dup2\n        /* \"#utility.yul\":5603:5643   */\n      add\n        /* \"#utility.yul\":5745:5751   */\n      dup2\n        /* \"#utility.yul\":5733:5743   */\n      dup2\n        /* \"#utility.yul\":5730:5752   */\n      lt\n        /* \"#utility.yul\":5709:5727   */\n      0xffffffffffffffff\n        /* \"#utility.yul\":5697:5707   */\n      dup3\n        /* \"#utility.yul\":5694:5728   */\n      gt\n        /* \"#utility.yul\":5691:5753   */\n      or\n        /* \"#utility.yul\":5688:5776   */\n      iszero\n      tag_150\n      jumpi\n        /* \"#utility.yul\":5756:5774   */\n      tag_151\n      tag_72\n      jump\t// in\n    tag_151:\n        /* \"#utility.yul\":5688:5776   */\n    tag_150:\n        /* \"#utility.yul\":5796:5806   */\n      dup1\n        /* \"#utility.yul\":5792:5794   */\n      0x40\n        /* \"#utility.yul\":5785:5807   */\n      mstore\n        /* \"#utility.yul\":5575:5813   */\n      pop\n        /* \"#utility.yul\":5532:5813   */\n      pop\n      pop\n      jump\t// out\n        /* \"#utility.yul\":5819:5948   */\n    tag_74:\n        /* \"#utility.yul\":5853:5859   */\n      0x00\n        /* \"#utility.yul\":5880:5900   */\n      tag_153\n      tag_67\n      jump\t// in\n    tag_153:\n        /* \"#utility.yul\":5870:5900   */\n      swap1\n      pop\n        /* \"#utility.yul\":5909:5942   */\n      tag_154\n        /* \"#utility.yul\":5937:5941   */\n      dup3\n        /* \"#utility.yul\":5929:5935   */\n      dup3\n        /* \"#utility.yul\":5909:5942   */\n      tag_73\n      jump\t// in\n    tag_154:\n        /* \"#utility.yul\":5819:5948   */\n      swap2\n      swap1\n      pop\n      jump\t// out\n        /* \"#utility.yul\":5954:6262   */\n    tag_75:\n        /* \"#utility.yul\":6016:6020   */\n      0x00\n        /* \"#utility.yul\":6106:6124   */\n      0xffffffffffffffff\n        /* \"#utility.yul\":6098:6104   */\n      dup3\n        /* \"#utility.yul\":6095:6125   */\n      gt\n        /* \"#utility.yul\":6092:6148   */\n      iszero\n      tag_156\n      jumpi\n        /* \"#utility.yul\":6128:6146   */\n      tag_157\n      tag_72\n      jump\t// in\n    tag_157:\n        /* \"#utility.yul\":6092:6148   */\n    tag_156:\n        /* \"#utility.yul\":6166:6195   */\n      tag_158\n        /* \"#utility.yul\":6188:6194   */\n      dup3\n        /* \"#utility.yul\":6166:6195   */\n      tag_59\n      jump\t// in\n    tag_158:\n        /* \"#utility.yul\":6158:6195   */\n      swap1\n      pop\n        /* \"#utility.yul\":6250:6254   */\n      0x20\n        /* \"#utility.yul\":6244:6248   */\n      dup2\n        /* \"#utility.yul\":6240:6255   */\n      add\n        /* \"#utility.yul\":6232:6255   */\n      swap1\n      pop\n        /* \"#utility.yul\":5954:6262   */\n      swap2\n      swap1\n      pop\n      jump\t// out\n        /* \"#utility.yul\":6268:6414   */\n    tag_76:\n        /* \"#utility.yul\":6365:6371   */\n      dup3\n        /* \"#utility.yul\":6360:6363   */\n      dup2\n        /* \"#utility.yul\":6355:6358   */\n      dup4\n        /* \"#utility.yul\":6342:6372   */\n      calldatacopy\n        /* \"#utility.yul\":6406:6407   */\n      0x00\n        /* \"#utility.yul\":6397:6403   */\n      dup4\n        /* \"#utility.yul\":6392:6395   */\n      dup4\n        /* \"#utility.yul\":6388:6404   */\n      add\n        /* \"#utility.yul\":6381:6408   */\n      mstore\n        /* \"#utility.yul\":6268:6414   */\n      pop\n      pop\n      pop\n      jump\t// out\n        /* \"#utility.yul\":6420:6845   */\n    tag_77:\n        /* \"#utility.yul\":6498:6503   */\n      0x00\n        /* \"#utility.yul\":6523:6589   */\n      tag_161\n        /* \"#utility.yul\":6539:6588   */\n      tag_162\n        /* \"#utility.yul\":6581:6587   */\n      dup5\n        /* \"#utility.yul\":6539:6588   */\n      tag_75\n      jump\t// in\n    tag_162:\n        /* \"#utility.yul\":6523:6589   */\n      tag_74\n      jump\t// in\n    tag_161:\n        /* \"#utility.yul\":6514:6589   */\n      swap1\n      pop\n        /* \"#utility.yul\":6612:6618   */\n      dup3\n        /* \"#utility.yul\":6605:6610   */\n      dup2\n        /* \"#utility.yul\":6598:6619   */\n      mstore\n        /* \"#utility.yul\":6650:6654   */\n      0x20\n        /* \"#utility.yul\":6643:6648   */\n      dup2\n        /* \"#utility.yul\":6639:6655   */\n      add\n        /* \"#utility.yul\":6688:6691   */\n      dup5\n        /* \"#utility.yul\":6679:6685   */\n      dup5\n        /* \"#utility.yul\":6674:6677   */\n      dup5\n        /* \"#utility.yul\":6670:6686   */\n      add\n        /* \"#utility.yul\":6667:6692   */\n      gt\n        /* \"#utility.yul\":6664:6776   */\n      iszero\n      tag_163\n      jumpi\n        /* \"#utility.yul\":6695:6774   */\n      tag_164\n      tag_71\n      jump\t// in\n    tag_164:\n        /* \"#utility.yul\":6664:6776   */\n    tag_163:\n        /* \"#utility.yul\":6785:6839   */\n      tag_165\n        /* \"#utility.yul\":6832:6838   */\n      dup5\n        /* \"#utility.yul\":6827:6830   */\n      dup3\n        /* \"#utility.yul\":6822:6825   */\n      dup6\n        /* \"#utility.yul\":6785:6839   */\n      tag_76\n      jump\t// in\n    tag_165:\n        /* \"#utility.yul\":6504:6845   */\n      pop\n        /* \"#utility.yul\":6420:6845   */\n      swap4\n      swap3\n      pop\n      pop\n      pop\n      jump\t// out\n        /* \"#utility.yul\":6865:7205   */\n    tag_78:\n        /* \"#utility.yul\":6921:6926   */\n      0x00\n        /* \"#utility.yul\":6970:6973   */\n      dup3\n        /* \"#utility.yul\":6963:6967   */\n      0x1f\n        /* \"#utility.yul\":6955:6961   */\n      dup4\n        /* \"#utility.yul\":6951:6968   */\n      add\n        /* \"#utility.yul\":6947:6974   */\n      slt\n        /* \"#utility.yul\":6937:7059   */\n      tag_167\n      jumpi\n        /* \"#utility.yul\":6978:7057   */\n      tag_168\n      tag_70\n      jump\t// in\n    tag_168:\n        /* \"#utility.yul\":6937:7059   */\n    tag_167:\n        /* \"#utility.yul\":7095:7101   */\n      dup2\n        /* \"#utility.yul\":7082:7102   */\n      calldataload\n        /* \"#utility.yul\":7120:7199   */\n      tag_169\n        /* \"#utility.yul\":7195:7198   */\n      dup5\n        /* \"#utility.yul\":7187:7193   */\n      dup3\n        /* \"#utility.yul\":7180:7184   */\n      0x20\n        /* \"#utility.yul\":7172:7178   */\n      dup7\n        /* \"#utility.yul\":7168:7185   */\n      add\n        /* \"#utility.yul\":7120:7199   */\n      tag_77\n      jump\t// in\n    tag_169:\n        /* \"#utility.yul\":7111:7199   */\n      swap2\n      pop\n        /* \"#utility.yul\":6927:7205   */\n      pop\n        /* \"#utility.yul\":6865:7205   */\n      swap3\n      swap2\n      pop\n      pop\n      jump\t// out\n        /* \"#utility.yul\":7211:7331   */\n    tag_79:\n        /* \"#utility.yul\":7283:7306   */\n      tag_171\n        /* \"#utility.yul\":7300:7305   */\n      dup2\n        /* \"#utility.yul\":7283:7306   */\n      tag_61\n      jump\t// in\n    tag_171:\n        /* \"#utility.yul\":7276:7281   */\n      dup2\n        /* \"#utility.yul\":7273:7307   */\n      eq\n        /* \"#utility.yul\":7263:7325   */\n      tag_172\n      jumpi\n        /* \"#utility.yul\":7321:7322   */\n      0x00\n        /* \"#utility.yul\":7318:7319   */\n      dup1\n        /* \"#utility.yul\":7311:7323   */\n      revert\n        /* \"#utility.yul\":7263:7325   */\n    tag_172:\n        /* \"#utility.yul\":7211:7331   */\n      pop\n      jump\t// out\n        /* \"#utility.yul\":7337:7474   */\n    tag_80:\n        /* \"#utility.yul\":7382:7387   */\n      0x00\n        /* \"#utility.yul\":7420:7426   */\n      dup2\n        /* \"#utility.yul\":7407:7427   */\n      calldataload\n        /* \"#utility.yul\":7398:7427   */\n      swap1\n      pop\n        /* \"#utility.yul\":7436:7468   */\n      tag_174\n        /* \"#utility.yul\":7462:7467   */\n      dup2\n        /* \"#utility.yul\":7436:7468   */\n      tag_79\n      jump\t// in\n    tag_174:\n        /* \"#utility.yul\":7337:7474   */\n      swap3\n      swap2\n      pop\n      pop\n      jump\t// out\n        /* \"#utility.yul\":7480:8132   */\n    tag_13:\n        /* \"#utility.yul\":7557:7563   */\n      0x00\n        /* \"#utility.yul\":7565:7571   */\n      dup1\n        /* \"#utility.yul\":7614:7616   */\n      0x40\n        /* \"#utility.yul\":7602:7611   */\n      dup4\n        /* \"#utility.yul\":7593:7600   */\n      dup6\n        /* \"#utility.yul\":7589:7612   */\n      sub\n        /* \"#utility.yul\":7585:7617   */\n      slt\n        /* \"#utility.yul\":7582:7701   */\n      iszero\n      tag_176\n      jumpi\n        /* \"#utility.yul\":7620:7699   */\n      tag_177\n      tag_68\n      jump\t// in\n    tag_177:\n        /* \"#utility.yul\":7582:7701   */\n    tag_176:\n        /* \"#utility.yul\":7768:7769   */\n      0x00\n        /* \"#utility.yul\":7757:7766   */\n      dup4\n        /* \"#utility.yul\":7753:7770   */\n      add\n        /* \"#utility.yul\":7740:7771   */\n      calldataload\n        /* \"#utility.yul\":7798:7816   */\n      0xffffffffffffffff\n        /* \"#utility.yul\":7790:7796   */\n      dup2\n        /* \"#utility.yul\":7787:7817   */\n      gt\n        /* \"#utility.yul\":7784:7901   */\n      iszero\n      tag_178\n      jumpi\n        /* \"#utility.yul\":7820:7899   */\n      tag_179\n      tag_69\n      jump\t// in\n    tag_179:\n        /* \"#utility.yul\":7784:7901   */\n    tag_178:\n        /* \"#utility.yul\":7925:7988   */\n      tag_180\n        /* \"#utility.yul\":7980:7987   */\n      dup6\n        /* \"#utility.yul\":7971:7977   */\n      dup3\n        /* \"#utility.yul\":7960:7969   */\n      dup7\n        /* \"#utility.yul\":7956:7978   */\n      add\n        /* \"#utility.yul\":7925:7988   */\n      tag_78\n      jump\t// in\n    tag_180:\n        /* \"#utility.yul\":7915:7988   */\n      swap3\n      pop\n        /* \"#utility.yul\":7711:7998   */\n      pop\n        /* \"#utility.yul\":8037:8039   */\n      0x20\n        /* \"#utility.yul\":8063:8115   */\n      tag_181\n        /* \"#utility.yul\":8107:8114   */\n      dup6\n        /* \"#utility.yul\":8098:8104   */\n      dup3\n        /* \"#utility.yul\":8087:8096   */\n      dup7\n        /* \"#utility.yul\":8083:8105   */\n      add\n        /* \"#utility.yul\":8063:8115   */\n      tag_80\n      jump\t// in\n    tag_181:\n        /* \"#utility.yul\":8053:8115   */\n      swap2\n      pop\n        /* \"#utility.yul\":8008:8125   */\n      pop\n        /* \"#utility.yul\":7480:8132   */\n      swap3\n      pop\n      swap3\n      swap1\n      pop\n      jump\t// out\n        /* \"#utility.yul\":8138:8256   */\n    tag_81:\n        /* \"#utility.yul\":8225:8249   */\n      tag_183\n        /* \"#utility.yul\":8243:8248   */\n      dup2\n        /* \"#utility.yul\":8225:8249   */\n      tag_54\n      jump\t// in\n    tag_183:\n        /* \"#utility.yul\":8220:8223   */\n      dup3\n        /* \"#utility.yul\":8213:8250   */\n      mstore\n        /* \"#utility.yul\":8138:8256   */\n      pop\n      pop\n      jump\t// out\n        /* \"#utility.yul\":8262:8484   */\n    tag_18:\n        /* \"#utility.yul\":8355:8359   */\n      0x00\n        /* \"#utility.yul\":8393:8395   */\n      0x20\n        /* \"#utility.yul\":8382:8391   */\n      dup3\n        /* \"#utility.yul\":8378:8396   */\n      add\n        /* \"#utility.yul\":8370:8396   */\n      swap1\n      pop\n        /* \"#utility.yul\":8406:8477   */\n      tag_185\n        /* \"#utility.yul\":8474:8475   */\n      0x00\n        /* \"#utility.yul\":8463:8472   */\n      dup4\n        /* \"#utility.yul\":8459:8476   */\n      add\n        /* \"#utility.yul\":8450:8456   */\n      dup5\n        /* \"#utility.yul\":8406:8477   */\n      tag_81\n      jump\t// in\n    tag_185:\n        /* \"#utility.yul\":8262:8484   */\n      swap3\n      swap2\n      pop\n      pop\n      jump\t// out\n        /* \"#utility.yul\":8490:8612   */\n    tag_82:\n        /* \"#utility.yul\":8563:8587   */\n      tag_187\n        /* \"#utility.yul\":8581:8586   */\n      dup2\n        /* \"#utility.yul\":8563:8587   */\n      tag_54\n      jump\t// in\n    tag_187:\n        /* \"#utility.yul\":8556:8561   */\n      dup2\n        /* \"#utility.yul\":8553:8588   */\n      eq\n        /* \"#utility.yul\":8543:8606   */\n      tag_188\n      jumpi\n        /* \"#utility.yul\":8602:8603   */\n      0x00\n        /* \"#utility.yul\":8599:8600   */\n      dup1\n        /* \"#utility.yul\":8592:8604   */\n      revert\n        /* \"#utility.yul\":8543:8606   */\n    tag_188:\n        /* \"#utility.yul\":8490:8612   */\n      pop\n      jump\t// out\n        /* \"#utility.yul\":8618:8757   */\n    tag_83:\n        /* \"#utility.yul\":8664:8669   */\n      0x00\n        /* \"#utility.yul\":8702:8708   */\n      dup2\n        /* \"#utility.yul\":8689:8709   */\n      calldataload\n        /* \"#utility.yul\":8680:8709   */\n      swap1\n      pop\n        /* \"#utility.yul\":8718:8751   */\n      tag_190\n        /* \"#utility.yul\":8745:8750   */\n      dup2\n        /* \"#utility.yul\":8718:8751   */\n      tag_82\n      jump\t// in\n    tag_190:\n        /* \"#utility.yul\":8618:8757   */\n      swap3\n      swap2\n      pop\n      pop\n      jump\t// out\n        /* \"#utility.yul\":8763:9092   */\n    tag_21:\n        /* \"#utility.yul\":8822:8828   */\n      0x00\n        /* \"#utility.yul\":8871:8873   */\n      0x20\n        /* \"#utility.yul\":8859:8868   */\n      dup3\n        /* \"#utility.yul\":8850:8857   */\n      dup5\n        /* \"#utility.yul\":8846:8869   */\n      sub\n        /* \"#utility.yul\":8842:8874   */\n      slt\n        /* \"#utility.yul\":8839:8958   */\n      iszero\n      tag_192\n      jumpi\n        /* \"#utility.yul\":8877:8956   */\n      tag_193\n      tag_68\n      jump\t// in\n    tag_193:\n        /* \"#utility.yul\":8839:8958   */\n    tag_192:\n        /* \"#utility.yul\":8997:8998   */\n      0x00\n        /* \"#utility.yul\":9022:9075   */\n      tag_194\n        /* \"#utility.yul\":9067:9074   */\n      dup5\n        /* \"#utility.yul\":9058:9064   */\n      dup3\n        /* \"#utility.yul\":9047:9056   */\n      dup6\n        /* \"#utility.yul\":9043:9065   */\n      add\n        /* \"#utility.yul\":9022:9075   */\n      tag_83\n      jump\t// in\n    tag_194:\n        /* \"#utility.yul\":9012:9075   */\n      swap2\n      pop\n        /* \"#utility.yul\":8968:9085   */\n      pop\n        /* \"#utility.yul\":8763:9092   */\n      swap3\n      swap2\n      pop\n      pop\n      jump\t// out\n        /* \"#utility.yul\":9164:9950   */\n    tag_84:\n        /* \"#utility.yul\":9277:9280   */\n      0x00\n        /* \"#utility.yul\":9313:9317   */\n      0x60\n        /* \"#utility.yul\":9308:9311   */\n      dup4\n        /* \"#utility.yul\":9304:9318   */\n      add\n        /* \"#utility.yul\":9399:9403   */\n      0x00\n        /* \"#utility.yul\":9392:9397   */\n      dup4\n        /* \"#utility.yul\":9388:9404   */\n      add\n        /* \"#utility.yul\":9382:9405   */\n      mload\n        /* \"#utility.yul\":9418:9481   */\n      tag_196\n        /* \"#utility.yul\":9475:9479   */\n      0x00\n        /* \"#utility.yul\":9470:9473   */\n      dup7\n        /* \"#utility.yul\":9466:9480   */\n      add\n        /* \"#utility.yul\":9452:9464   */\n      dup3\n        /* \"#utility.yul\":9418:9481   */\n      tag_55\n      jump\t// in\n    tag_196:\n        /* \"#utility.yul\":9328:9491   */\n      pop\n        /* \"#utility.yul\":9581:9585   */\n      0x20\n        /* \"#utility.yul\":9574:9579   */\n      dup4\n        /* \"#utility.yul\":9570:9586   */\n      add\n        /* \"#utility.yul\":9564:9587   */\n      mload\n        /* \"#utility.yul\":9634:9637   */\n      dup5\n        /* \"#utility.yul\":9628:9632   */\n      dup3\n        /* \"#utility.yul\":9624:9638   */\n      sub\n        /* \"#utility.yul\":9617:9621   */\n      0x20\n        /* \"#utility.yul\":9612:9615   */\n      dup7\n        /* \"#utility.yul\":9608:9622   */\n      add\n        /* \"#utility.yul\":9601:9639   */\n      mstore\n        /* \"#utility.yul\":9660:9733   */\n      tag_197\n        /* \"#utility.yul\":9728:9732   */\n      dup3\n        /* \"#utility.yul\":9714:9726   */\n      dup3\n        /* \"#utility.yul\":9660:9733   */\n      tag_60\n      jump\t// in\n    tag_197:\n        /* \"#utility.yul\":9652:9733   */\n      swap2\n      pop\n        /* \"#utility.yul\":9501:9744   */\n      pop\n        /* \"#utility.yul\":9833:9837   */\n      0x40\n        /* \"#utility.yul\":9826:9831   */\n      dup4\n        /* \"#utility.yul\":9822:9838   */\n      add\n        /* \"#utility.yul\":9816:9839   */\n      mload\n        /* \"#utility.yul\":9852:9913   */\n      tag_198\n        /* \"#utility.yul\":9907:9911   */\n      0x40\n        /* \"#utility.yul\":9902:9905   */\n      dup7\n        /* \"#utility.yul\":9898:9912   */\n      add\n        /* \"#utility.yul\":9884:9896   */\n      dup3\n        /* \"#utility.yul\":9852:9913   */\n      tag_62\n      jump\t// in\n    tag_198:\n        /* \"#utility.yul\":9754:9923   */\n      pop\n        /* \"#utility.yul\":9940:9944   */\n      dup1\n        /* \"#utility.yul\":9933:9944   */\n      swap2\n      pop\n        /* \"#utility.yul\":9282:9950   */\n      pop\n        /* \"#utility.yul\":9164:9950   */\n      swap3\n      swap2\n      pop\n      pop\n      jump\t// out\n        /* \"#utility.yul\":9956:10317   */\n    tag_24:\n        /* \"#utility.yul\":10093:10097   */\n      0x00\n        /* \"#utility.yul\":10131:10133   */\n      0x20\n        /* \"#utility.yul\":10120:10129   */\n      dup3\n        /* \"#utility.yul\":10116:10134   */\n      add\n        /* \"#utility.yul\":10108:10134   */\n      swap1\n      pop\n        /* \"#utility.yul\":10180:10189   */\n      dup2\n        /* \"#utility.yul\":10174:10178   */\n      dup2\n        /* \"#utility.yul\":10170:10190   */\n      sub\n        /* \"#utility.yul\":10166:10167   */\n      0x00\n        /* \"#utility.yul\":10155:10164   */\n      dup4\n        /* \"#utility.yul\":10151:10168   */\n      add\n        /* \"#utility.yul\":10144:10191   */\n      mstore\n        /* \"#utility.yul\":10208:10310   */\n      tag_200\n        /* \"#utility.yul\":10305:10309   */\n      dup2\n        /* \"#utility.yul\":10296:10302   */\n      dup5\n        /* \"#utility.yul\":10208:10310   */\n      tag_84\n      jump\t// in\n    tag_200:\n        /* \"#utility.yul\":10200:10310   */\n      swap1\n      pop\n        /* \"#utility.yul\":9956:10317   */\n      swap3\n      swap2\n      pop\n      pop\n      jump\t// out\n        /* \"#utility.yul\":10323:10503   */\n    tag_85:\n        /* \"#utility.yul\":10371:10448   */\n      0x4e487b7100000000000000000000000000000000000000000000000000000000\n        /* \"#utility.yul\":10368:10369   */\n      0x00\n        /* \"#utility.yul\":10361:10449   */\n      mstore\n        /* \"#utility.yul\":10468:10472   */\n      0x22\n        /* \"#utility.yul\":10465:10466   */\n      0x04\n        /* \"#utility.yul\":10458:10473   */\n      mstore\n        /* \"#utility.yul\":10492:10496   */\n      0x24\n        /* \"#utility.yul\":10489:10490   */\n      0x00\n        /* \"#utility.yul\":10482:10497   */\n      revert\n        /* \"#utility.yul\":10509:10829   */\n    tag_30:\n        /* \"#utility.yul\":10553:10559   */\n      0x00\n        /* \"#utility.yul\":10590:10591   */\n      0x02\n        /* \"#utility.yul\":10584:10588   */\n      dup3\n        /* \"#utility.yul\":10580:10592   */\n      div\n        /* \"#utility.yul\":10570:10592   */\n      swap1\n      pop\n        /* \"#utility.yul\":10637:10638   */\n      0x01\n        /* \"#utility.yul\":10631:10635   */\n      dup3\n        /* \"#utility.yul\":10627:10639   */\n      and\n        /* \"#utility.yul\":10658:10676   */\n      dup1\n        /* \"#utility.yul\":10648:10729   */\n      tag_203\n      jumpi\n        /* \"#utility.yul\":10714:10718   */\n      0x7f\n        /* \"#utility.yul\":10706:10712   */\n      dup3\n        /* \"#utility.yul\":10702:10719   */\n      and\n        /* \"#utility.yul\":10692:10719   */\n      swap2\n      pop\n        /* \"#utility.yul\":10648:10729   */\n    tag_203:\n        /* \"#utility.yul\":10776:10778   */\n      0x20\n        /* \"#utility.yul\":10768:10774   */\n      dup3\n        /* \"#utility.yul\":10765:10779   */\n      lt\n        /* \"#utility.yul\":10745:10763   */\n      dup2\n        /* \"#utility.yul\":10742:10780   */\n      sub\n        /* \"#utility.yul\":10739:10823   */\n      tag_204\n      jumpi\n        /* \"#utility.yul\":10795:10813   */\n      tag_205\n      tag_85\n      jump\t// in\n    tag_205:\n        /* \"#utility.yul\":10739:10823   */\n    tag_204:\n        /* \"#utility.yul\":10560:10829   */\n      pop\n        /* \"#utility.yul\":10509:10829   */\n      swap2\n      swap1\n      pop\n      jump\t// out\n        /* \"#utility.yul\":10835:10976   */\n    tag_86:\n        /* \"#utility.yul\":10884:10888   */\n      0x00\n        /* \"#utility.yul\":10907:10910   */\n      dup2\n        /* \"#utility.yul\":10899:10910   */\n      swap1\n      pop\n        /* \"#utility.yul\":10930:10933   */\n      dup2\n        /* \"#utility.yul\":10927:10928   */\n      0x00\n        /* \"#utility.yul\":10920:10934   */\n      mstore\n        /* \"#utility.yul\":10964:10968   */\n      0x20\n        /* \"#utility.yul\":10961:10962   */\n      0x00\n        /* \"#utility.yul\":10951:10969   */\n      keccak256\n        /* \"#utility.yul\":10943:10969   */\n      swap1\n      pop\n        /* \"#utility.yul\":10835:10976   */\n      swap2\n      swap1\n      pop\n      jump\t// out\n        /* \"#utility.yul\":10982:11075   */\n    tag_87:\n        /* \"#utility.yul\":11019:11025   */\n      0x00\n        /* \"#utility.yul\":11066:11068   */\n      0x20\n        /* \"#utility.yul\":11061:11063   */\n      0x1f\n        /* \"#utility.yul\":11054:11059   */\n      dup4\n        /* \"#utility.yul\":11050:11064   */\n      add\n        /* \"#utility.yul\":11046:11069   */\n      div\n        /* \"#utility.yul\":11036:11069   */\n      swap1\n      pop\n        /* \"#utility.yul\":10982:11075   */\n      swap2\n      swap1\n      pop\n      jump\t// out\n        /* \"#utility.yul\":11081:11188   */\n    tag_88:\n        /* \"#utility.yul\":11125:11133   */\n      0x00\n        /* \"#utility.yul\":11175:11180   */\n      dup3\n        /* \"#utility.yul\":11169:11173   */\n      dup3\n        /* \"#utility.yul\":11165:11181   */\n      shl\n        /* \"#utility.yul\":11144:11181   */\n      swap1\n      pop\n        /* \"#utility.yul\":11081:11188   */\n      swap3\n      swap2\n      pop\n      pop\n      jump\t// out\n        /* \"#utility.yul\":11194:11587   */\n    tag_89:\n        /* \"#utility.yul\":11263:11269   */\n      0x00\n        /* \"#utility.yul\":11313:11314   */\n      0x08\n        /* \"#utility.yul\":11301:11311   */\n      dup4\n        /* \"#utility.yul\":11297:11315   */\n      mul\n        /* \"#utility.yul\":11336:11433   */\n      tag_210\n        /* \"#utility.yul\":11366:11432   */\n      0xffffffffffffffffffffffffffffffffffffffffffffffffffffffffffffffff\n        /* \"#utility.yul\":11355:11364   */\n      dup3\n        /* \"#utility.yul\":11336:11433   */\n      tag_88\n      jump\t// in\n    tag_210:\n        /* \"#utility.yul\":11454:11493   */\n      tag_211\n        /* \"#utility.yul\":11484:11492   */\n      dup7\n        /* \"#utility.yul\":11473:11482   */\n      dup4\n        /* \"#utility.yul\":11454:11493   */\n      tag_88\n      jump\t// in\n    tag_211:\n        /* \"#utility.yul\":11442:11493   */\n      swap6\n      pop\n        /* \"#utility.yul\":11526:11530   */\n      dup1\n        /* \"#utility.yul\":11522:11531   */\n      not\n        /* \"#utility.yul\":11515:11520   */\n      dup5\n        /* \"#utility.yul\":11511:11532   */\n      and\n        /* \"#utility.yul\":11502:11532   */\n      swap4\n      pop\n        /* \"#utility.yul\":11575:11579   */\n      dup1\n        /* \"#utility.yul\":11565:11573   */\n      dup7\n        /* \"#utility.yul\":11561:11580   */\n      and\n        /* \"#utility.yul\":11554:11559   */\n      dup5\n        /* \"#utility.yul\":11551:11581   */\n      or\n        /* \"#utility.yul\":11541:11581   */\n      swap3\n      pop\n        /* \"#utility.yul\":11270:11587   */\n      pop\n      pop\n        /* \"#utility.yul\":11194:11587   */\n      swap4\n      swap3\n      pop\n      pop\n      pop\n      jump\t// out\n        /* \"#utility.yul\":11593:11653   */\n    tag_90:\n        /* \"#utility.yul\":11621:11624   */\n      0x00\n        /* \"#utility.yul\":11642:11647   */\n      dup2\n        /* \"#utility.yul\":11635:11647   */\n      swap1\n      pop\n        /* \"#utility.yul\":11593:11653   */\n      swap2\n      swap1\n      pop\n      jump\t// out\n        /* \"#utility.yul\":11659:11801   */\n    tag_91:\n        /* \"#utility.yul\":11709:11718   */\n      0x00\n        /* \"#utility.yul\":11742:11795   */\n      tag_214\n        /* \"#utility.yul\":11760:11794   */\n      tag_215\n        /* \"#utility.yul\":11769:11793   */\n      tag_216\n        /* \"#utility.yul\":11787:11792   */\n      dup5\n        /* \"#utility.yul\":11769:11793   */\n      tag_54\n      jump\t// in\n    tag_216:\n        /* \"#utility.yul\":11760:11794   */\n      tag_90\n      jump\t// in\n    tag_215:\n        /* \"#utility.yul\":11742:11795   */\n      tag_54\n      jump\t// in\n    tag_214:\n        /* \"#utility.yul\":11729:11795   */\n      swap1\n      pop\n        /* \"#utility.yul\":11659:11801   */\n      swap2\n      swap1\n      pop\n      jump\t// out\n        /* \"#utility.yul\":11807:11882   */\n    tag_92:\n        /* \"#utility.yul\":11850:11853   */\n      0x00\n        /* \"#utility.yul\":11871:11876   */\n      dup2\n        /* \"#utility.yul\":11864:11876   */\n      swap1\n      pop\n        /* \"#utility.yul\":11807:11882   */\n      swap2\n      swap1\n      pop\n      jump\t// out\n        /* \"#utility.yul\":11888:12157   */\n    tag_93:\n        /* \"#utility.yul\":11998:12037   */\n      tag_219\n        /* \"#utility.yul\":12029:12036   */\n      dup4\n        /* \"#utility.yul\":11998:12037   */\n      tag_91\n      jump\t// in\n    tag_219:\n        /* \"#utility.yul\":12059:12150   */\n      tag_220\n        /* \"#utility.yul\":12108:12149   */\n      tag_221\n        /* \"#utility.yul\":12132:12148   */\n      dup3\n        /* \"#utility.yul\":12108:12149   */\n      tag_92\n      jump\t// in\n    tag_221:\n        /* \"#utility.yul\":12100:12106   */\n      dup5\n        /* \"#utility.yul\":12093:12097   */\n      dup5\n        /* \"#utility.yul\":12087:12098   */\n      sload\n        /* \"#utility.yul\":12059:12150   */\n      tag_89\n      jump\t// in\n    tag_220:\n        /* \"#utility.yul\":12053:12057   */\n      dup3\n        /* \"#utility.yul\":12046:12151   */\n      sstore\n        /* \"#utility.yul\":11964:12157   */\n      pop\n        /* \"#utility.yul\":11888:12157   */\n      pop\n      pop\n      pop\n      jump\t// out\n        /* \"#utility.yul\":12163:12236   */\n    tag_94:\n        /* \"#utility.yul\":12208:12211   */\n      0x00\n        /* \"#utility.yul\":12163:12236   */\n      swap1\n      jump\t// out\n        /* \"#utility.yul\":12242:12431   */\n    tag_95:\n        /* \"#utility.yul\":12319:12351   */\n      tag_224\n      tag_94\n      jump\t// in\n    tag_224:\n        /* \"#utility.yul\":12360:12425   */\n      tag_225\n        /* \"#utility.yul\":12418:12424   */\n      dup2\n        /* \"#utility.yul\":12410:12416   */\n      dup5\n        /* \"#utility.yul\":12404:12408   */\n      dup5\n        /* \"#utility.yul\":12360:12425   */\n      tag_93\n      jump\t// in\n    tag_225:\n        /* \"#utility.yul\":12295:12431   */\n      pop\n        /* \"#utility.yul\":12242:12431   */\n      pop\n      pop\n      jump\t// out\n        /* \"#utility.yul\":12437:12623   */\n    tag_96:\n        /* \"#utility.yul\":12497:12617   */\n    tag_227:\n        /* \"#utility.yul\":12514:12517   */\n      dup2\n        /* \"#utility.yul\":12507:12512   */\n      dup2\n        /* \"#utility.yul\":12504:12518   */\n      lt\n        /* \"#utility.yul\":12497:12617   */\n      iszero\n      tag_229\n      jumpi\n        /* \"#utility.yul\":12568:12607   */\n      tag_230\n        /* \"#utility.yul\":12605:12606   */\n      0x00\n        /* \"#utility.yul\":12598:12603   */\n      dup3\n        /* \"#utility.yul\":12568:12607   */\n      tag_95\n      jump\t// in\n    tag_230:\n        /* \"#utility.yul\":12541:12542   */\n      0x01\n        /* \"#utility.yul\":12534:12539   */\n      dup2\n        /* \"#utility.yul\":12530:12543   */\n      add\n        /* \"#utility.yul\":12521:12543   */\n      swap1\n      pop\n        /* \"#utility.yul\":12497:12617   */\n      jump(tag_227)\n    tag_229:\n        /* \"#utility.yul\":12437:12623   */\n      pop\n      pop\n      jump\t// out\n        /* \"#utility.yul\":12629:13172   */\n    tag_97:\n        /* \"#utility.yul\":12730:12732   */\n      0x1f\n        /* \"#utility.yul\":12725:12728   */\n      dup3\n        /* \"#utility.yul\":12722:12733   */\n      gt\n        /* \"#utility.yul\":12719:13165   */\n      iszero\n      tag_232\n      jumpi\n        /* \"#utility.yul\":12764:12802   */\n      tag_233\n        /* \"#utility.yul\":12796:12801   */\n      dup2\n        /* \"#utility.yul\":12764:12802   */\n      tag_86\n      jump\t// in\n    tag_233:\n        /* \"#utility.yul\":12848:12877   */\n      tag_234\n        /* \"#utility.yul\":12866:12876   */\n      dup5\n        /* \"#utility.yul\":12848:12877   */\n      tag_87\n      jump\t// in\n    tag_234:\n        /* \"#utility.yul\":12838:12846   */\n      dup2\n        /* \"#utility.yul\":12834:12878   */\n      add\n        /* \"#utility.yul\":13031:13033   */\n      0x20\n        /* \"#utility.yul\":13019:13029   */\n      dup6\n        /* \"#utility.yul\":13016:13034   */\n      lt\n        /* \"#utility.yul\":13013:13062   */\n      iszero\n      tag_235\n      jumpi\n        /* \"#utility.yul\":13052:13060   */\n      dup2\n        /* \"#utility.yul\":13037:13060   */\n      swap1\n      pop\n        /* \"#utility.yul\":13013:13062   */\n    tag_235:\n        /* \"#utility.yul\":13075:13155   */\n      tag_236\n        /* \"#utility.yul\":13131:13153   */\n      tag_237\n        /* \"#utility.yul\":13149:13152   */\n      dup6\n        /* \"#utility.yul\":13131:13153   */\n      tag_87\n      jump\t// in\n    tag_237:\n        /* \"#utility.yul\":13121:13129   */\n      dup4\n        /* \"#utility.yul\":13117:13154   */\n      add\n        /* \"#utility.yul\":13104:13115   */\n      dup3\n        /* \"#utility.yul\":13075:13155   */\n      tag_96\n      jump\t// in\n    tag_236:\n        /* \"#utility.yul\":12734:13165   */\n      pop\n      pop\n        /* \"#utility.yul\":12719:13165   */\n    tag_232:\n        /* \"#utility.yul\":12629:13172   */\n      pop\n      pop\n      pop\n      jump\t// out\n        /* \"#utility.yul\":13178:13295   */\n    tag_98:\n        /* \"#utility.yul\":13232:13240   */\n      0x00\n        /* \"#utility.yul\":13282:13287   */\n      dup3\n        /* \"#utility.yul\":13276:13280   */\n      dup3\n        /* \"#utility.yul\":13272:13288   */\n      shr\n        /* \"#utility.yul\":13251:13288   */\n      swap1\n      pop\n        /* \"#utility.yul\":13178:13295   */\n      swap3\n      swap2\n      pop\n      pop\n      jump\t// out\n        /* \"#utility.yul\":13301:13470   */\n    tag_99:\n        /* \"#utility.yul\":13345:13351   */\n      0x00\n        /* \"#utility.yul\":13378:13429   */\n      tag_240\n        /* \"#utility.yul\":13426:13427   */\n      0x00\n        /* \"#utility.yul\":13422:13428   */\n      not\n        /* \"#utility.yul\":13414:13419   */\n      dup5\n        /* \"#utility.yul\":13411:13412   */\n      0x08\n        /* \"#utility.yul\":13407:13420   */\n      mul\n        /* \"#utility.yul\":13378:13429   */\n      tag_98\n      jump\t// in\n    tag_240:\n        /* \"#utility.yul\":13374:13430   */\n      not\n        /* \"#utility.yul\":13459:13463   */\n      dup1\n        /* \"#utility.yul\":13453:13457   */\n      dup4\n        /* \"#utility.yul\":13449:13464   */\n      and\n        /* \"#utility.yul\":13439:13464   */\n      swap2\n      pop\n        /* \"#utility.yul\":13352:13470   */\n      pop\n        /* \"#utility.yul\":13301:13470   */\n      swap3\n      swap2\n      pop\n      pop\n      jump\t// out\n        /* \"#utility.yul\":13475:13770   */\n    tag_100:\n        /* \"#utility.yul\":13551:13555   */\n      0x00\n        /* \"#utility.yul\":13697:13726   */\n      tag_242\n        /* \"#utility.yul\":13722:13725   */\n      dup4\n        /* \"#utility.yul\":13716:13720   */\n      dup4\n        /* \"#utility.yul\":13697:13726   */\n      tag_99\n      jump\t// in\n    tag_242:\n        /* \"#utility.yul\":13689:13726   */\n      swap2\n      pop\n        /* \"#utility.yul\":13759:13762   */\n      dup3\n        /* \"#utility.yul\":13756:13757   */\n      0x02\n        /* \"#utility.yul\":13752:13763   */\n      mul\n        /* \"#utility.yul\":13746:13750   */\n      dup3\n        /* \"#utility.yul\":13743:13764   */\n      or\n        /* \"#utility.yul\":13735:13764   */\n      swap1\n      pop\n        /* \"#utility.yul\":13475:13770   */\n      swap3\n      swap2\n      pop\n      pop\n      jump\t// out\n        /* \"#utility.yul\":13775:15170   */\n    tag_38:\n        /* \"#utility.yul\":13892:13929   */\n      tag_244\n        /* \"#utility.yul\":13925:13928   */\n      dup3\n        /* \"#utility.yul\":13892:13929   */\n      tag_56\n      jump\t// in\n    tag_244:\n        /* \"#utility.yul\":13994:14012   */\n      0xffffffffffffffff\n        /* \"#utility.yul\":13986:13992   */\n      dup2\n        /* \"#utility.yul\":13983:14013   */\n      gt\n        /* \"#utility.yul\":13980:14036   */\n      iszero\n      tag_245\n      jumpi\n        /* \"#utility.yul\":14016:14034   */\n      tag_246\n      tag_72\n      jump\t// in\n    tag_246:\n        /* \"#utility.yul\":13980:14036   */\n    tag_245:\n        /* \"#utility.yul\":14060:14098   */\n      tag_247\n        /* \"#utility.yul\":14092:14096   */\n      dup3\n        /* \"#utility.yul\":14086:14097   */\n      sload\n        /* \"#utility.yul\":14060:14098   */\n      tag_30\n      jump\t// in\n    tag_247:\n        /* \"#utility.yul\":14145:14212   */\n      tag_248\n        /* \"#utility.yul\":14205:14211   */\n      dup3\n        /* \"#utility.yul\":14197:14203   */\n      dup3\n        /* \"#utility.yul\":14191:14195   */\n      dup6\n        /* \"#utility.yul\":14145:14212   */\n      tag_97\n      jump\t// in\n    tag_248:\n        /* \"#utility.yul\":14239:14240   */\n      0x00\n        /* \"#utility.yul\":14263:14267   */\n      0x20\n        /* \"#utility.yul\":14250:14267   */\n      swap1\n      pop\n        /* \"#utility.yul\":14295:14297   */\n      0x1f\n        /* \"#utility.yul\":14287:14293   */\n      dup4\n        /* \"#utility.yul\":14284:14298   */\n      gt\n        /* \"#utility.yul\":14312:14313   */\n      0x01\n        /* \"#utility.yul\":14307:14925   */\n      dup2\n      eq\n      tag_250\n      jumpi\n        /* \"#utility.yul\":14969:14970   */\n      0x00\n        /* \"#utility.yul\":14986:14992   */\n      dup5\n        /* \"#utility.yul\":14983:15060   */\n      iszero\n      tag_251\n      jumpi\n        /* \"#utility.yul\":15035:15044   */\n      dup3\n        /* \"#utility.yul\":15030:15033   */\n      dup8\n        /* \"#utility.yul\":15026:15045   */\n      add\n        /* \"#utility.yul\":15020:15046   */\n      mload\n        /* \"#utility.yul\":15011:15046   */\n      swap1\n      pop\n        /* \"#utility.yul\":14983:15060   */\n    tag_251:\n        /* \"#utility.yul\":15086:15153   */\n      tag_252\n        /* \"#utility.yul\":15146:15152   */\n      dup6\n        /* \"#utility.yul\":15139:15144   */\n      dup3\n        /* \"#utility.yul\":15086:15153   */\n      tag_100\n      jump\t// in\n    tag_252:\n        /* \"#utility.yul\":15080:15084   */\n      dup7\n        /* \"#utility.yul\":15073:15154   */\n      sstore\n        /* \"#utility.yul\":14942:15164   */\n      pop\n        /* \"#utility.yul\":14277:15164   */\n      jump(tag_249)\n        /* \"#utility.yul\":14307:14925   */\n    tag_250:\n        /* \"#utility.yul\":14359:14363   */\n      0x1f\n        /* \"#utility.yul\":14355:14364   */\n      not\n        /* \"#utility.yul\":14347:14353   */\n      dup5\n        /* \"#utility.yul\":14343:14365   */\n      and\n        /* \"#utility.yul\":14393:14430   */\n      tag_253\n        /* \"#utility.yul\":14425:14429   */\n      dup7\n        /* \"#utility.yul\":14393:14430   */\n      tag_86\n      jump\t// in\n    tag_253:\n        /* \"#utility.yul\":14452:14453   */\n      0x00\n        /* \"#utility.yul\":14466:14674   */\n    tag_254:\n        /* \"#utility.yul\":14480:14487   */\n      dup3\n        /* \"#utility.yul\":14477:14478   */\n      dup2\n        /* \"#utility.yul\":14474:14488   */\n      lt\n        /* \"#utility.yul\":14466:14674   */\n      iszero\n      tag_256\n      jumpi\n        /* \"#utility.yul\":14559:14568   */\n      dup5\n        /* \"#utility.yul\":14554:14557   */\n      dup10\n        /* \"#utility.yul\":14550:14569   */\n      add\n        /* \"#utility.yul\":14544:14570   */\n      mload\n        /* \"#utility.yul\":14536:14542   */\n      dup3\n        /* \"#utility.yul\":14529:14571   */\n      sstore\n        /* \"#utility.yul\":14610:14611   */\n      0x01\n        /* \"#utility.yul\":14602:14608   */\n      dup3\n        /* \"#utility.yul\":14598:14612   */\n      add\n        /* \"#utility.yul\":14588:14612   */\n      swap2\n      pop\n        /* \"#utility.yul\":14657:14659   */\n      0x20\n        /* \"#utility.yul\":14646:14655   */\n      dup6\n        /* \"#utility.yul\":14642:14660   */\n      add\n        /* \"#utility.yul\":14629:14660   */\n      swap5\n      pop\n        /* \"#utility.yul\":14503:14507   */\n      0x20\n        /* \"#utility.yul\":14500:14501   */\n      dup2\n        /* \"#utility.yul\":14496:14508   */\n      add\n        /* \"#utility.yul\":14491:14508   */\n      swap1\n      pop\n        /* \"#utility.yul\":14466:14674   */\n      jump(tag_254)\n    tag_256:\n        /* \"#utility.yul\":14702:14708   */\n      dup7\n        /* \"#utility.yul\":14693:14700   */\n      dup4\n        /* \"#utility.yul\":14690:14709   */\n      lt\n        /* \"#utility.yul\":14687:14866   */\n      iszero\n      tag_257\n      jumpi\n        /* \"#utility.yul\":14760:14769   */\n      dup5\n        /* \"#utility.yul\":14755:14758   */\n      dup10\n        /* \"#utility.yul\":14751:14770   */\n      add\n        /* \"#utility.yul\":14745:14771   */\n      mload\n        /* \"#utility.yul\":14803:14851   */\n      tag_258\n        /* \"#utility.yul\":14845:14849   */\n      0x1f\n        /* \"#utility.yul\":14837:14843   */\n      dup10\n        /* \"#utility.yul\":14833:14850   */\n      and\n        /* \"#utility.yul\":14822:14831   */\n      dup3\n        /* \"#utility.yul\":14803:14851   */\n      tag_99\n      jump\t// in\n    tag_258:\n        /* \"#utility.yul\":14795:14801   */\n      dup4\n        /* \"#utility.yul\":14788:14852   */\n      sstore\n        /* \"#utility.yul\":14710:14866   */\n      pop\n        /* \"#utility.yul\":14687:14866   */\n    tag_257:\n        /* \"#utility.yul\":14912:14913   */\n      0x01\n        /* \"#utility.yul\":14908:14909   */\n      0x02\n        /* \"#utility.yul\":14900:14906   */\n      dup9\n        /* \"#utility.yul\":14896:14910   */\n      mul\n        /* \"#utility.yul\":14892:14914   */\n      add\n        /* \"#utility.yul\":14886:14890   */\n      dup9\n        /* \"#utility.yul\":14879:14915   */\n      sstore\n        /* \"#utility.yul\":14314:14925   */\n      pop\n      pop\n      pop\n        /* \"#utility.yul\":14277:15164   */\n    tag_249:\n      pop\n        /* \"#utility.yul\":13867:15170   */\n      pop\n      pop\n      pop\n        /* \"#utility.yul\":13775:15170   */\n      pop\n      pop\n      jump\t// out\n        /* \"#utility.yul\":15176:15356   */\n    tag_101:\n        /* \"#utility.yul\":15224:15301   */\n      0x4e487b7100000000000000000000000000000000000000000000000000000000\n        /* \"#utility.yul\":15221:15222   */\n      0x00\n        /* \"#utility.yul\":15214:15302   */\n      mstore\n        /* \"#utility.yul\":15321:15325   */\n      0x11\n        /* \"#utility.yul\":15318:15319   */\n      0x04\n        /* \"#utility.yul\":15311:15326   */\n      mstore\n        /* \"#utility.yul\":15345:15349   */\n      0x24\n        /* \"#utility.yul\":15342:15343   */\n      0x00\n        /* \"#utility.yul\":15335:15350   */\n      revert\n        /* \"#utility.yul\":15362:15595   */\n    tag_41:\n        /* \"#utility.yul\":15401:15404   */\n      0x00\n        /* \"#utility.yul\":15424:15448   */\n      tag_261\n        /* \"#utility.yul\":15442:15447   */\n      dup3\n        /* \"#utility.yul\":15424:15448   */\n      tag_54\n      jump\t// in\n    tag_261:\n        /* \"#utility.yul\":15415:15448   */\n      swap2\n      pop\n        /* \"#utility.yul\":15470:15536   */\n      0xffffffffffffffffffffffffffffffffffffffffffffffffffffffffffffffff\n        /* \"#utility.yul\":15463:15468   */\n      dup3\n        /* \"#utility.yul\":15460:15537   */\n      sub\n        /* \"#utility.yul\":15457:15560   */\n      tag_262\n      jumpi\n        /* \"#utility.yul\":15540:15558   */\n      tag_263\n      tag_101\n      jump\t// in\n    tag_263:\n        /* \"#utility.yul\":15457:15560   */\n    tag_262:\n        /* \"#utility.yul\":15587:15588   */\n      0x01\n        /* \"#utility.yul\":15580:15585   */\n      dup3\n        /* \"#utility.yul\":15576:15589   */\n      add\n        /* \"#utility.yul\":15569:15589   */\n      swap1\n      pop\n        /* \"#utility.yul\":15362:15595   */\n      swap2\n      swap1\n      pop\n      jump\t// out\n\n    auxdata: 0xa2646970667358221220b90c8e84db7767796f390a53e4c5a97433eacf4520d3c5b23c8e56fedbbaa54e64736f6c63430008120033\n}\n",
				"bytecode": {
					"linkReferences": {},
					"object": "608060405234801561001057600080fd5b50610bf9806100206000396000f3fe608060405234801561001057600080fd5b506004361061004c5760003560e01c806354f755771461005157806373fa34fe1461006f578063a2db9ea91461008b578063a42a773d146100a9575b600080fd5b6100596100d9565b6040516100669190610586565b60405180910390f35b6100896004803603810190610084919061071d565b6101de565b005b6100936102b5565b6040516100a09190610788565b60405180910390f35b6100c360048036038101906100be91906107cf565b6102be565b6040516100d0919061084c565b60405180910390f35b60606001805480602002602001604051908101604052809291908181526020016000905b828210156101d557838290600052602060002090600302016040518060600160405290816000820154815260200160018201805461013a9061089d565b80601f01602080910402602001604051908101604052809291908181526020018280546101669061089d565b80156101b35780601f10610188576101008083540402835291602001916101b3565b820191906000526020600020905b81548152906001019060200180831161019657829003601f168201915b50505050508152602001600282015481525050815260200190600101906100fd565b50505050905090565b600060405180606001604052806000548152602001848152602001838152509050600181908060018154018082558091505060019003906000526020600020906003020160009091909190915060008201518160000155602082015181600101908161024a9190610a7a565b5060408201518160020155505080600260008054815260200190815260200160002060008201518160000155602082015181600101908161028b9190610a7a565b50604082015181600201559050506000808154809291906102ab90610b7b565b9190505550505050565b60008054905090565b6102c6610391565b60026000838152602001908152602001600020604051806060016040529081600082015481526020016001820180546102fe9061089d565b80601f016020809104026020016040519081016040528092919081815260200182805461032a9061089d565b80156103775780601f1061034c57610100808354040283529160200191610377565b820191906000526020600020905b81548152906001019060200180831161035a57829003601f168201915b505050505081526020016002820154815250509050919050565b60405180606001604052806000815260200160608152602001600081525090565b600081519050919050565b600082825260208201905092915050565b6000819050602082019050919050565b6000819050919050565b6103f1816103de565b82525050565b600081519050919050565b600082825260208201905092915050565b60005b83811015610431578082015181840152602081019050610416565b60008484015250505050565b6000601f19601f8301169050919050565b6000610459826103f7565b6104638185610402565b9350610473818560208601610413565b61047c8161043d565b840191505092915050565b6000819050919050565b61049a81610487565b82525050565b60006060830160008301516104b860008601826103e8565b50602083015184820360208601526104d0828261044e565b91505060408301516104e56040860182610491565b508091505092915050565b60006104fc83836104a0565b905092915050565b6000602082019050919050565b600061051c826103b2565b61052681856103bd565b935083602082028501610538856103ce565b8060005b85811015610574578484038952815161055585826104f0565b945061056083610504565b925060208a0199505060018101905061053c565b50829750879550505050505092915050565b600060208201905081810360008301526105a08184610511565b905092915050565b6000604051905090565b600080fd5b600080fd5b600080fd5b600080fd5b7f4e487b7100000000000000000000000000000000000000000000000000000000600052604160045260246000fd5b6105fe8261043d565b810181811067ffffffffffffffff8211171561061d5761061c6105c6565b5b80604052505050565b60006106306105a8565b905061063c82826105f5565b919050565b600067ffffffffffffffff82111561065c5761065b6105c6565b5b6106658261043d565b9050602081019050919050565b82818337600083830152505050565b600061069461068f84610641565b610626565b9050828152602081018484840111156106b0576106af6105c1565b5b6106bb848285610672565b509392505050565b600082601f8301126106d8576106d76105bc565b5b81356106e8848260208601610681565b91505092915050565b6106fa81610487565b811461070557600080fd5b50565b600081359050610717816106f1565b92915050565b60008060408385031215610734576107336105b2565b5b600083013567ffffffffffffffff811115610752576107516105b7565b5b61075e858286016106c3565b925050602061076f85828601610708565b9150509250929050565b610782816103de565b82525050565b600060208201905061079d6000830184610779565b92915050565b6107ac816103de565b81146107b757600080fd5b50565b6000813590506107c9816107a3565b92915050565b6000602082840312156107e5576107e46105b2565b5b60006107f3848285016107ba565b91505092915050565b600060608301600083015161081460008601826103e8565b506020830151848203602086015261082c828261044e565b91505060408301516108416040860182610491565b508091505092915050565b6000602082019050818103600083015261086681846107fc565b905092915050565b7f4e487b7100000000000000000000000000000000000000000000000000000000600052602260045260246000fd5b600060028204905060018216806108b557607f821691505b6020821081036108c8576108c761086e565b5b50919050565b60008190508160005260206000209050919050565b60006020601f8301049050919050565b600082821b905092915050565b6000600883026109307fffffffffffffffffffffffffffffffffffffffffffffffffffffffffffffffff826108f3565b61093a86836108f3565b95508019841693508086168417925050509392505050565b6000819050919050565b600061097761097261096d846103de565b610952565b6103de565b9050919050565b6000819050919050565b6109918361095c565b6109a561099d8261097e565b848454610900565b825550505050565b600090565b6109ba6109ad565b6109c5818484610988565b505050565b5b818110156109e9576109de6000826109b2565b6001810190506109cb565b5050565b601f821115610a2e576109ff816108ce565b610a08846108e3565b81016020851015610a17578190505b610a2b610a23856108e3565b8301826109ca565b50505b505050565b600082821c905092915050565b6000610a5160001984600802610a33565b1980831691505092915050565b6000610a6a8383610a40565b9150826002028217905092915050565b610a83826103f7565b67ffffffffffffffff811115610a9c57610a9b6105c6565b5b610aa6825461089d565b610ab18282856109ed565b600060209050601f831160018114610ae45760008415610ad2578287015190505b610adc8582610a5e565b865550610b44565b601f198416610af2866108ce565b60005b82811015610b1a57848901518255600182019150602085019450602081019050610af5565b86831015610b375784890151610b33601f891682610a40565b8355505b6001600288020188555050505b505050505050565b7f4e487b7100000000000000000000000000000000000000000000000000000000600052601160045260246000fd5b6000610b86826103de565b91507fffffffffffffffffffffffffffffffffffffffffffffffffffffffffffffffff8203610bb857610bb7610b4c565b5b60018201905091905056fea2646970667358221220b90c8e84db7767796f390a53e4c5a97433eacf4520d3c5b23c8e56fedbbaa54e64736f6c63430008120033",
					"opcodes": "PUSH1 0x80 PUSH1 0x40 MSTORE CALLVALUE DUP1 ISZERO PUSH2 0x10 JUMPI PUSH1 0x0 DUP1 REVERT JUMPDEST POP PUSH2 0xBF9 DUP1 PUSH2 0x20 PUSH1 0x0 CODECOPY PUSH1 0x0 RETURN INVALID PUSH1 0x80 PUSH1 0x40 MSTORE CALLVALUE DUP1 ISZERO PUSH2 0x10 JUMPI PUSH1 0x0 DUP1 REVERT JUMPDEST POP PUSH1 0x4 CALLDATASIZE LT PUSH2 0x4C JUMPI PUSH1 0x0 CALLDATALOAD PUSH1 0xE0 SHR DUP1 PUSH4 0x54F75577 EQ PUSH2 0x51 JUMPI DUP1 PUSH4 0x73FA34FE EQ PUSH2 0x6F JUMPI DUP1 PUSH4 0xA2DB9EA9 EQ PUSH2 0x8B JUMPI DUP1 PUSH4 0xA42A773D EQ PUSH2 0xA9 JUMPI JUMPDEST PUSH1 0x0 DUP1 REVERT JUMPDEST PUSH2 0x59 PUSH2 0xD9 JUMP JUMPDEST PUSH1 0x40 MLOAD PUSH2 0x66 SWAP2 SWAP1 PUSH2 0x586 JUMP JUMPDEST PUSH1 0x40 MLOAD DUP1 SWAP2 SUB SWAP1 RETURN JUMPDEST PUSH2 0x89 PUSH1 0x4 DUP1 CALLDATASIZE SUB DUP2 ADD SWAP1 PUSH2 0x84 SWAP2 SWAP1 PUSH2 0x71D JUMP JUMPDEST PUSH2 0x1DE JUMP JUMPDEST STOP JUMPDEST PUSH2 0x93 PUSH2 0x2B5 JUMP JUMPDEST PUSH1 0x40 MLOAD PUSH2 0xA0 SWAP2 SWAP1 PUSH2 0x788 JUMP JUMPDEST PUSH1 0x40 MLOAD DUP1 SWAP2 SUB SWAP1 RETURN JUMPDEST PUSH2 0xC3 PUSH1 0x4 DUP1 CALLDATASIZE SUB DUP2 ADD SWAP1 PUSH2 0xBE SWAP2 SWAP1 PUSH2 0x7CF JUMP JUMPDEST PUSH2 0x2BE JUMP JUMPDEST PUSH1 0x40 MLOAD PUSH2 0xD0 SWAP2 SWAP1 PUSH2 0x84C JUMP JUMPDEST PUSH1 0x40 MLOAD DUP1 SWAP2 SUB SWAP1 RETURN JUMPDEST PUSH1 0x60 PUSH1 0x1 DUP1 SLOAD DUP1 PUSH1 0x20 MUL PUSH1 0x20 ADD PUSH1 0x40 MLOAD SWAP1 DUP2 ADD PUSH1 0x40 MSTORE DUP1 SWAP3 SWAP2 SWAP1 DUP2 DUP2 MSTORE PUSH1 0x20 ADD PUSH1 0x0 SWAP1 JUMPDEST DUP3 DUP3 LT ISZERO PUSH2 0x1D5 JUMPI DUP4 DUP3 SWAP1 PUSH1 0x0 MSTORE PUSH1 0x20 PUSH1 0x0 KECCAK256 SWAP1 PUSH1 0x3 MUL ADD PUSH1 0x40 MLOAD DUP1 PUSH1 0x60 ADD PUSH1 0x40 MSTORE SWAP1 DUP2 PUSH1 0x0 DUP3 ADD SLOAD DUP2 MSTORE PUSH1 0x20 ADD PUSH1 0x1 DUP3 ADD DUP1 SLOAD PUSH2 0x13A SWAP1 PUSH2 0x89D JUMP JUMPDEST DUP1 PUSH1 0x1F ADD PUSH1 0x20 DUP1 SWAP2 DIV MUL PUSH1 0x20 ADD PUSH1 0x40 MLOAD SWAP1 DUP2 ADD PUSH1 0x40 MSTORE DUP1 SWAP3 SWAP2 SWAP1 DUP2 DUP2 MSTORE PUSH1 0x20 ADD DUP3 DUP1 SLOAD PUSH2 0x166 SWAP1 PUSH2 0x89D JUMP JUMPDEST DUP1 ISZERO PUSH2 0x1B3 JUMPI DUP1 PUSH1 0x1F LT PUSH2 0x188 JUMPI PUSH2 0x100 DUP1 DUP4 SLOAD DIV MUL DUP4 MSTORE SWAP2 PUSH1 0x20 ADD SWAP2 PUSH2 0x1B3 JUMP JUMPDEST DUP3 ADD SWAP2 SWAP1 PUSH1 0x0 MSTORE PUSH1 0x20 PUSH1 0x0 KECCAK256 SWAP1 JUMPDEST DUP2 SLOAD DUP2 MSTORE SWAP1 PUSH1 0x1 ADD SWAP1 PUSH1 0x20 ADD DUP1 DUP4 GT PUSH2 0x196 JUMPI DUP3 SWAP1 SUB PUSH1 0x1F AND DUP3 ADD SWAP2 JUMPDEST POP POP POP POP POP DUP2 MSTORE PUSH1 0x20 ADD PUSH1 0x2 DUP3 ADD SLOAD DUP2 MSTORE POP POP DUP2 MSTORE PUSH1 0x20 ADD SWAP1 PUSH1 0x1 ADD SWAP1 PUSH2 0xFD JUMP JUMPDEST POP POP POP POP SWAP1 POP SWAP1 JUMP JUMPDEST PUSH1 0x0 PUSH1 0x40 MLOAD DUP1 PUSH1 0x60 ADD PUSH1 0x40 MSTORE DUP1 PUSH1 0x0 SLOAD DUP2 MSTORE PUSH1 0x20 ADD DUP5 DUP2 MSTORE PUSH1 0x20 ADD DUP4 DUP2 MSTORE POP SWAP1 POP PUSH1 0x1 DUP2 SWAP1 DUP1 PUSH1 0x1 DUP2 SLOAD ADD DUP1 DUP3 SSTORE DUP1 SWAP2 POP POP PUSH1 0x1 SWAP1 SUB SWAP1 PUSH1 0x0 MSTORE PUSH1 0x20 PUSH1 0x0 KECCAK256 SWAP1 PUSH1 0x3 MUL ADD PUSH1 0x0 SWAP1 SWAP2 SWAP1 SWAP2 SWAP1 SWAP2 POP PUSH1 0x0 DUP3 ADD MLOAD DUP2 PUSH1 0x0 ADD SSTORE PUSH1 0x20 DUP3 ADD MLOAD DUP2 PUSH1 0x1 ADD SWAP1 DUP2 PUSH2 0x24A SWAP2 SWAP1 PUSH2 0xA7A JUMP JUMPDEST POP PUSH1 0x40 DUP3 ADD MLOAD DUP2 PUSH1 0x2 ADD SSTORE POP POP DUP1 PUSH1 0x2 PUSH1 0x0 DUP1 SLOAD DUP2 MSTORE PUSH1 0x20 ADD SWAP1 DUP2 MSTORE PUSH1 0x20 ADD PUSH1 0x0 KECCAK256 PUSH1 0x0 DUP3 ADD MLOAD DUP2 PUSH1 0x0 ADD SSTORE PUSH1 0x20 DUP3 ADD MLOAD DUP2 PUSH1 0x1 ADD SWAP1 DUP2 PUSH2 0x28B SWAP2 SWAP1 PUSH2 0xA7A JUMP JUMPDEST POP PUSH1 0x40 DUP3 ADD MLOAD DUP2 PUSH1 0x2 ADD SSTORE SWAP1 POP POP PUSH1 0x0 DUP1 DUP2 SLOAD DUP1 SWAP3 SWAP2 SWAP1 PUSH2 0x2AB SWAP1 PUSH2 0xB7B JUMP JUMPDEST SWAP2 SWAP1 POP SSTORE POP POP POP POP JUMP JUMPDEST PUSH1 0x0 DUP1 SLOAD SWAP1 POP SWAP1 JUMP JUMPDEST PUSH2 0x2C6 PUSH2 0x391 JUMP JUMPDEST PUSH1 0x2 PUSH1 0x0 DUP4 DUP2 MSTORE PUSH1 0x20 ADD SWAP1 DUP2 MSTORE PUSH1 0x20 ADD PUSH1 0x0 KECCAK256 PUSH1 0x40 MLOAD DUP1 PUSH1 0x60 ADD PUSH1 0x40 MSTORE SWAP1 DUP2 PUSH1 0x0 DUP3 ADD SLOAD DUP2 MSTORE PUSH1 0x20 ADD PUSH1 0x1 DUP3 ADD DUP1 SLOAD PUSH2 0x2FE SWAP1 PUSH2 0x89D JUMP JUMPDEST DUP1 PUSH1 0x1F ADD PUSH1 0x20 DUP1 SWAP2 DIV MUL PUSH1 0x20 ADD PUSH1 0x40 MLOAD SWAP1 DUP2 ADD PUSH1 0x40 MSTORE DUP1 SWAP3 SWAP2 SWAP1 DUP2 DUP2 MSTORE PUSH1 0x20 ADD DUP3 DUP1 SLOAD PUSH2 0x32A SWAP1 PUSH2 0x89D JUMP JUMPDEST DUP1 ISZERO PUSH2 0x377 JUMPI DUP1 PUSH1 0x1F LT PUSH2 0x34C JUMPI PUSH2 0x100 DUP1 DUP4 SLOAD DIV MUL DUP4 MSTORE SWAP2 PUSH1 0x20 ADD SWAP2 PUSH2 0x377 JUMP JUMPDEST DUP3 ADD SWAP2 SWAP1 PUSH1 0x0 MSTORE PUSH1 0x20 PUSH1 0x0 KECCAK256 SWAP1 JUMPDEST DUP2 SLOAD DUP2 MSTORE SWAP1 PUSH1 0x1 ADD SWAP1 PUSH1 0x20 ADD DUP1 DUP4 GT PUSH2 0x35A JUMPI DUP3 SWAP1 SUB PUSH1 0x1F AND DUP3 ADD SWAP2 JUMPDEST POP POP POP POP POP DUP2 MSTORE PUSH1 0x20 ADD PUSH1 0x2 DUP3 ADD SLOAD DUP2 MSTORE POP POP SWAP1 POP SWAP2 SWAP1 POP JUMP JUMPDEST PUSH1 0x40 MLOAD DUP1 PUSH1 0x60 ADD PUSH1 0x40 MSTORE DUP1 PUSH1 0x0 DUP2 MSTORE PUSH1 0x20 ADD PUSH1 0x60 DUP2 MSTORE PUSH1 0x20 ADD PUSH1 0x0 DUP2 MSTORE POP SWAP1 JUMP JUMPDEST PUSH1 0x0 DUP2 MLOAD SWAP1 POP SWAP2 SWAP1 POP JUMP JUMPDEST PUSH1 0x0 DUP3 DUP3 MSTORE PUSH1 0x20 DUP3 ADD SWAP1 POP SWAP3 SWAP2 POP POP JUMP JUMPDEST PUSH1 0x0 DUP2 SWAP1 POP PUSH1 0x20 DUP3 ADD SWAP1 POP SWAP2 SWAP1 POP JUMP JUMPDEST PUSH1 0x0 DUP2 SWAP1 POP SWAP2 SWAP1 POP JUMP JUMPDEST PUSH2 0x3F1 DUP2 PUSH2 0x3DE JUMP JUMPDEST DUP3 MSTORE POP POP JUMP JUMPDEST PUSH1 0x0 DUP2 MLOAD SWAP1 POP SWAP2 SWAP1 POP JUMP JUMPDEST PUSH1 0x0 DUP3 DUP3 MSTORE PUSH1 0x20 DUP3 ADD SWAP1 POP SWAP3 SWAP2 POP POP JUMP JUMPDEST PUSH1 0x0 JUMPDEST DUP4 DUP2 LT ISZERO PUSH2 0x431 JUMPI DUP1 DUP3 ADD MLOAD DUP2 DUP5 ADD MSTORE PUSH1 0x20 DUP2 ADD SWAP1 POP PUSH2 0x416 JUMP JUMPDEST PUSH1 0x0 DUP5 DUP5 ADD MSTORE POP POP POP POP JUMP JUMPDEST PUSH1 0x0 PUSH1 0x1F NOT PUSH1 0x1F DUP4 ADD AND SWAP1 POP SWAP2 SWAP1 POP JUMP JUMPDEST PUSH1 0x0 PUSH2 0x459 DUP3 PUSH2 0x3F7 JUMP JUMPDEST PUSH2 0x463 DUP2 DUP6 PUSH2 0x402 JUMP JUMPDEST SWAP4 POP PUSH2 0x473 DUP2 DUP6 PUSH1 0x20 DUP7 ADD PUSH2 0x413 JUMP JUMPDEST PUSH2 0x47C DUP2 PUSH2 0x43D JUMP JUMPDEST DUP5 ADD SWAP2 POP POP SWAP3 SWAP2 POP POP JUMP JUMPDEST PUSH1 0x0 DUP2 SWAP1 POP SWAP2 SWAP1 POP JUMP JUMPDEST PUSH2 0x49A DUP2 PUSH2 0x487 JUMP JUMPDEST DUP3 MSTORE POP POP JUMP JUMPDEST PUSH1 0x0 PUSH1 0x60 DUP4 ADD PUSH1 0x0 DUP4 ADD MLOAD PUSH2 0x4B8 PUSH1 0x0 DUP7 ADD DUP3 PUSH2 0x3E8 JUMP JUMPDEST POP PUSH1 0x20 DUP4 ADD MLOAD DUP5 DUP3 SUB PUSH1 0x20 DUP7 ADD MSTORE PUSH2 0x4D0 DUP3 DUP3 PUSH2 0x44E JUMP JUMPDEST SWAP2 POP POP PUSH1 0x40 DUP4 ADD MLOAD PUSH2 0x4E5 PUSH1 0x40 DUP7 ADD DUP3 PUSH2 0x491 JUMP JUMPDEST POP DUP1 SWAP2 POP POP SWAP3 SWAP2 POP POP JUMP JUMPDEST PUSH1 0x0 PUSH2 0x4FC DUP4 DUP4 PUSH2 0x4A0 JUMP JUMPDEST SWAP1 POP SWAP3 SWAP2 POP POP JUMP JUMPDEST PUSH1 0x0 PUSH1 0x20 DUP3 ADD SWAP1 POP SWAP2 SWAP1 POP JUMP JUMPDEST PUSH1 0x0 PUSH2 0x51C DUP3 PUSH2 0x3B2 JUMP JUMPDEST PUSH2 0x526 DUP2 DUP6 PUSH2 0x3BD JUMP JUMPDEST SWAP4 POP DUP4 PUSH1 0x20 DUP3 MUL DUP6 ADD PUSH2 0x538 DUP6 PUSH2 0x3CE JUMP JUMPDEST DUP1 PUSH1 0x0 JUMPDEST DUP6 DUP2 LT ISZERO PUSH2 0x574 JUMPI DUP5 DUP5 SUB DUP10 MSTORE DUP2 MLOAD PUSH2 0x555 DUP6 DUP3 PUSH2 0x4F0 JUMP JUMPDEST SWAP5 POP PUSH2 0x560 DUP4 PUSH2 0x504 JUMP JUMPDEST SWAP3 POP PUSH1 0x20 DUP11 ADD SWAP10 POP POP PUSH1 0x1 DUP2 ADD SWAP1 POP PUSH2 0x53C JUMP JUMPDEST POP DUP3 SWAP8 POP DUP8 SWAP6 POP POP POP POP POP POP SWAP3 SWAP2 POP POP JUMP JUMPDEST PUSH1 0x0 PUSH1 0x20 DUP3 ADD SWAP1 POP DUP2 DUP2 SUB PUSH1 0x0 DUP4 ADD MSTORE PUSH2 0x5A0 DUP2 DUP5 PUSH2 0x511 JUMP JUMPDEST SWAP1 POP SWAP3 SWAP2 POP POP JUMP JUMPDEST PUSH1 0x0 PUSH1 0x40 MLOAD SWAP1 POP SWAP1 JUMP JUMPDEST PUSH1 0x0 DUP1 REVERT JUMPDEST PUSH1 0x0 DUP1 REVERT JUMPDEST PUSH1 0x0 DUP1 REVERT JUMPDEST PUSH1 0x0 DUP1 REVERT JUMPDEST PUSH32 0x4E487B7100000000000000000000000000000000000000000000000000000000 PUSH1 0x0 MSTORE PUSH1 0x41 PUSH1 0x4 MSTORE PUSH1 0x24 PUSH1 0x0 REVERT JUMPDEST PUSH2 0x5FE DUP3 PUSH2 0x43D JUMP JUMPDEST DUP2 ADD DUP2 DUP2 LT PUSH8 0xFFFFFFFFFFFFFFFF DUP3 GT OR ISZERO PUSH2 0x61D JUMPI PUSH2 0x61C PUSH2 0x5C6 JUMP JUMPDEST JUMPDEST DUP1 PUSH1 0x40 MSTORE POP POP POP JUMP JUMPDEST PUSH1 0x0 PUSH2 0x630 PUSH2 0x5A8 JUMP JUMPDEST SWAP1 POP PUSH2 0x63C DUP3 DUP3 PUSH2 0x5F5 JUMP JUMPDEST SWAP2 SWAP1 POP JUMP JUMPDEST PUSH1 0x0 PUSH8 0xFFFFFFFFFFFFFFFF DUP3 GT ISZERO PUSH2 0x65C JUMPI PUSH2 0x65B PUSH2 0x5C6 JUMP JUMPDEST JUMPDEST PUSH2 0x665 DUP3 PUSH2 0x43D JUMP JUMPDEST SWAP1 POP PUSH1 0x20 DUP2 ADD SWAP1 POP SWAP2 SWAP1 POP JUMP JUMPDEST DUP3 DUP2 DUP4 CALLDATACOPY PUSH1 0x0 DUP4 DUP4 ADD MSTORE POP POP POP JUMP JUMPDEST PUSH1 0x0 PUSH2 0x694 PUSH2 0x68F DUP5 PUSH2 0x641 JUMP JUMPDEST PUSH2 0x626 JUMP JUMPDEST SWAP1 POP DUP3 DUP2 MSTORE PUSH1 0x20 DUP2 ADD DUP5 DUP5 DUP5 ADD GT ISZERO PUSH2 0x6B0 JUMPI PUSH2 0x6AF PUSH2 0x5C1 JUMP JUMPDEST JUMPDEST PUSH2 0x6BB DUP5 DUP3 DUP6 PUSH2 0x672 JUMP JUMPDEST POP SWAP4 SWAP3 POP POP POP JUMP JUMPDEST PUSH1 0x0 DUP3 PUSH1 0x1F DUP4 ADD SLT PUSH2 0x6D8 JUMPI PUSH2 0x6D7 PUSH2 0x5BC JUMP JUMPDEST JUMPDEST DUP2 CALLDATALOAD PUSH2 0x6E8 DUP5 DUP3 PUSH1 0x20 DUP7 ADD PUSH2 0x681 JUMP JUMPDEST SWAP2 POP POP SWAP3 SWAP2 POP POP JUMP JUMPDEST PUSH2 0x6FA DUP2 PUSH2 0x487 JUMP JUMPDEST DUP2 EQ PUSH2 0x705 JUMPI PUSH1 0x0 DUP1 REVERT JUMPDEST POP JUMP JUMPDEST PUSH1 0x0 DUP2 CALLDATALOAD SWAP1 POP PUSH2 0x717 DUP2 PUSH2 0x6F1 JUMP JUMPDEST SWAP3 SWAP2 POP POP JUMP JUMPDEST PUSH1 0x0 DUP1 PUSH1 0x40 DUP4 DUP6 SUB SLT ISZERO PUSH2 0x734 JUMPI PUSH2 0x733 PUSH2 0x5B2 JUMP JUMPDEST JUMPDEST PUSH1 0x0 DUP4 ADD CALLDATALOAD PUSH8 0xFFFFFFFFFFFFFFFF DUP2 GT ISZERO PUSH2 0x752 JUMPI PUSH2 0x751 PUSH2 0x5B7 JUMP JUMPDEST JUMPDEST PUSH2 0x75E DUP6 DUP3 DUP7 ADD PUSH2 0x6C3 JUMP JUMPDEST SWAP3 POP POP PUSH1 0x20 PUSH2 0x76F DUP6 DUP3 DUP7 ADD PUSH2 0x708 JUMP JUMPDEST SWAP2 POP POP SWAP3 POP SWAP3 SWAP1 POP JUMP JUMPDEST PUSH2 0x782 DUP2 PUSH2 0x3DE JUMP JUMPDEST DUP3 MSTORE POP POP JUMP JUMPDEST PUSH1 0x0 PUSH1 0x20 DUP3 ADD SWAP1 POP PUSH2 0x79D PUSH1 0x0 DUP4 ADD DUP5 PUSH2 0x779 JUMP JUMPDEST SWAP3 SWAP2 POP POP JUMP JUMPDEST PUSH2 0x7AC DUP2 PUSH2 0x3DE JUMP JUMPDEST DUP2 EQ PUSH2 0x7B7 JUMPI PUSH1 0x0 DUP1 REVERT JUMPDEST POP JUMP JUMPDEST PUSH1 0x0 DUP2 CALLDATALOAD SWAP1 POP PUSH2 0x7C9 DUP2 PUSH2 0x7A3 JUMP JUMPDEST SWAP3 SWAP2 POP POP JUMP JUMPDEST PUSH1 0x0 PUSH1 0x20 DUP3 DUP5 SUB SLT ISZERO PUSH2 0x7E5 JUMPI PUSH2 0x7E4 PUSH2 0x5B2 JUMP JUMPDEST JUMPDEST PUSH1 0x0 PUSH2 0x7F3 DUP5 DUP3 DUP6 ADD PUSH2 0x7BA JUMP JUMPDEST SWAP2 POP POP SWAP3 SWAP2 POP POP JUMP JUMPDEST PUSH1 0x0 PUSH1 0x60 DUP4 ADD PUSH1 0x0 DUP4 ADD MLOAD PUSH2 0x814 PUSH1 0x0 DUP7 ADD DUP3 PUSH2 0x3E8 JUMP JUMPDEST POP PUSH1 0x20 DUP4 ADD MLOAD DUP5 DUP3 SUB PUSH1 0x20 DUP7 ADD MSTORE PUSH2 0x82C DUP3 DUP3 PUSH2 0x44E JUMP JUMPDEST SWAP2 POP POP PUSH1 0x40 DUP4 ADD MLOAD PUSH2 0x841 PUSH1 0x40 DUP7 ADD DUP3 PUSH2 0x491 JUMP JUMPDEST POP DUP1 SWAP2 POP POP SWAP3 SWAP2 POP POP JUMP JUMPDEST PUSH1 0x0 PUSH1 0x20 DUP3 ADD SWAP1 POP DUP2 DUP2 SUB PUSH1 0x0 DUP4 ADD MSTORE PUSH2 0x866 DUP2 DUP5 PUSH2 0x7FC JUMP JUMPDEST SWAP1 POP SWAP3 SWAP2 POP POP JUMP JUMPDEST PUSH32 0x4E487B7100000000000000000000000000000000000000000000000000000000 PUSH1 0x0 MSTORE PUSH1 0x22 PUSH1 0x4 MSTORE PUSH1 0x24 PUSH1 0x0 REVERT JUMPDEST PUSH1 0x0 PUSH1 0x2 DUP3 DIV SWAP1 POP PUSH1 0x1 DUP3 AND DUP1 PUSH2 0x8B5 JUMPI PUSH1 0x7F DUP3 AND SWAP2 POP JUMPDEST PUSH1 0x20 DUP3 LT DUP2 SUB PUSH2 0x8C8 JUMPI PUSH2 0x8C7 PUSH2 0x86E JUMP JUMPDEST JUMPDEST POP SWAP2 SWAP1 POP JUMP JUMPDEST PUSH1 0x0 DUP2 SWAP1 POP DUP2 PUSH1 0x0 MSTORE PUSH1 0x20 PUSH1 0x0 KECCAK256 SWAP1 POP SWAP2 SWAP1 POP JUMP JUMPDEST PUSH1 0x0 PUSH1 0x20 PUSH1 0x1F DUP4 ADD DIV SWAP1 POP SWAP2 SWAP1 POP JUMP JUMPDEST PUSH1 0x0 DUP3 DUP3 SHL SWAP1 POP SWAP3 SWAP2 POP POP JUMP JUMPDEST PUSH1 0x0 PUSH1 0x8 DUP4 MUL PUSH2 0x930 PUSH32 0xFFFFFFFFFFFFFFFFFFFFFFFFFFFFFFFFFFFFFFFFFFFFFFFFFFFFFFFFFFFFFFFF DUP3 PUSH2 0x8F3 JUMP JUMPDEST PUSH2 0x93A DUP7 DUP4 PUSH2 0x8F3 JUMP JUMPDEST SWAP6 POP DUP1 NOT DUP5 AND SWAP4 POP DUP1 DUP7 AND DUP5 OR SWAP3 POP POP POP SWAP4 SWAP3 POP POP POP JUMP JUMPDEST PUSH1 0x0 DUP2 SWAP1 POP SWAP2 SWAP1 POP JUMP JUMPDEST PUSH1 0x0 PUSH2 0x977 PUSH2 0x972 PUSH2 0x96D DUP5 PUSH2 0x3DE JUMP JUMPDEST PUSH2 0x952 JUMP JUMPDEST PUSH2 0x3DE JUMP JUMPDEST SWAP1 POP SWAP2 SWAP1 POP JUMP JUMPDEST PUSH1 0x0 DUP2 SWAP1 POP SWAP2 SWAP1 POP JUMP JUMPDEST PUSH2 0x991 DUP4 PUSH2 0x95C JUMP JUMPDEST PUSH2 0x9A5 PUSH2 0x99D DUP3 PUSH2 0x97E JUMP JUMPDEST DUP5 DUP5 SLOAD PUSH2 0x900 JUMP JUMPDEST DUP3 SSTORE POP POP POP POP JUMP JUMPDEST PUSH1 0x0 SWAP1 JUMP JUMPDEST PUSH2 0x9BA PUSH2 0x9AD JUMP JUMPDEST PUSH2 0x9C5 DUP2 DUP5 DUP5 PUSH2 0x988 JUMP JUMPDEST POP POP POP JUMP JUMPDEST JUMPDEST DUP2 DUP2 LT ISZERO PUSH2 0x9E9 JUMPI PUSH2 0x9DE PUSH1 0x0 DUP3 PUSH2 0x9B2 JUMP JUMPDEST PUSH1 0x1 DUP2 ADD SWAP1 POP PUSH2 0x9CB JUMP JUMPDEST POP POP JUMP JUMPDEST PUSH1 0x1F DUP3 GT ISZERO PUSH2 0xA2E JUMPI PUSH2 0x9FF DUP2 PUSH2 0x8CE JUMP JUMPDEST PUSH2 0xA08 DUP5 PUSH2 0x8E3 JUMP JUMPDEST DUP2 ADD PUSH1 0x20 DUP6 LT ISZERO PUSH2 0xA17 JUMPI DUP2 SWAP1 POP JUMPDEST PUSH2 0xA2B PUSH2 0xA23 DUP6 PUSH2 0x8E3 JUMP JUMPDEST DUP4 ADD DUP3 PUSH2 0x9CA JUMP JUMPDEST POP POP JUMPDEST POP POP POP JUMP JUMPDEST PUSH1 0x0 DUP3 DUP3 SHR SWAP1 POP SWAP3 SWAP2 POP POP JUMP JUMPDEST PUSH1 0x0 PUSH2 0xA51 PUSH1 0x0 NOT DUP5 PUSH1 0x8 MUL PUSH2 0xA33 JUMP JUMPDEST NOT DUP1 DUP4 AND SWAP2 POP POP SWAP3 SWAP2 POP POP JUMP JUMPDEST PUSH1 0x0 PUSH2 0xA6A DUP4 DUP4 PUSH2 0xA40 JUMP JUMPDEST SWAP2 POP DUP3 PUSH1 0x2 MUL DUP3 OR SWAP1 POP SWAP3 SWAP2 POP POP JUMP JUMPDEST PUSH2 0xA83 DUP3 PUSH2 0x3F7 JUMP JUMPDEST PUSH8 0xFFFFFFFFFFFFFFFF DUP2 GT ISZERO PUSH2 0xA9C JUMPI PUSH2 0xA9B PUSH2 0x5C6 JUMP JUMPDEST JUMPDEST PUSH2 0xAA6 DUP3 SLOAD PUSH2 0x89D JUMP JUMPDEST PUSH2 0xAB1 DUP3 DUP3 DUP6 PUSH2 0x9ED JUMP JUMPDEST PUSH1 0x0 PUSH1 0x20 SWAP1 POP PUSH1 0x1F DUP4 GT PUSH1 0x1 DUP2 EQ PUSH2 0xAE4 JUMPI PUSH1 0x0 DUP5 ISZERO PUSH2 0xAD2 JUMPI DUP3 DUP8 ADD MLOAD SWAP1 POP JUMPDEST PUSH2 0xADC DUP6 DUP3 PUSH2 0xA5E JUMP JUMPDEST DUP7 SSTORE POP PUSH2 0xB44 JUMP JUMPDEST PUSH1 0x1F NOT DUP5 AND PUSH2 0xAF2 DUP7 PUSH2 0x8CE JUMP JUMPDEST PUSH1 0x0 JUMPDEST DUP3 DUP2 LT ISZERO PUSH2 0xB1A JUMPI DUP5 DUP10 ADD MLOAD DUP3 SSTORE PUSH1 0x1 DUP3 ADD SWAP2 POP PUSH1 0x20 DUP6 ADD SWAP5 POP PUSH1 0x20 DUP2 ADD SWAP1 POP PUSH2 0xAF5 JUMP JUMPDEST DUP7 DUP4 LT ISZERO PUSH2 0xB37 JUMPI DUP5 DUP10 ADD MLOAD PUSH2 0xB33 PUSH1 0x1F DUP10 AND DUP3 PUSH2 0xA40 JUMP JUMPDEST DUP4 SSTORE POP JUMPDEST PUSH1 0x1 PUSH1 0x2 DUP9 MUL ADD DUP9 SSTORE POP POP POP JUMPDEST POP POP POP POP POP POP JUMP JUMPDEST PUSH32 0x4E487B7100000000000000000000000000000000000000000000000000000000 PUSH1 0x0 MSTORE PUSH1 0x11 PUSH1 0x4 MSTORE PUSH1 0x24 PUSH1 0x0 REVERT JUMPDEST PUSH1 0x0 PUSH2 0xB86 DUP3 PUSH2 0x3DE JUMP JUMPDEST SWAP2 POP PUSH32 0xFFFFFFFFFFFFFFFFFFFFFFFFFFFFFFFFFFFFFFFFFFFFFFFFFFFFFFFFFFFFFFFF DUP3 SUB PUSH2 0xBB8 JUMPI PUSH2 0xBB7 PUSH2 0xB4C JUMP JUMPDEST JUMPDEST PUSH1 0x1 DUP3 ADD SWAP1 POP SWAP2 SWAP1 POP JUMP INVALID LOG2 PUSH5 0x6970667358 0x22 SLT KECCAK256 0xB9 0xC DUP15 DUP5 0xDB PUSH24 0x67796F390A53E4C5A97433EACF4520D3C5B23C8E56FEDBBA 0xA5 0x4E PUSH5 0x736F6C6343 STOP ADDMOD SLT STOP CALLER "
				},
				"gasEstimates": {
					"creation": {
						"codeDepositCost": "613000",
						"executionCost": "645",
						"totalCost": "613645"
					},
					"external": {
						"retrieveAllPerson()": "infinite",
						"retrieveSinglePerson(uint256)": "infinite",
						"retrieveTheCurrentKey()": "2459",
						"storePerson(string,int256)": "infinite"
					}
				},
				"methodIdentifiers": {
					"retrieveAllPerson()": "54f75577",
					"retrieveSinglePerson(uint256)": "a42a773d",
					"retrieveTheCurrentKey()": "a2db9ea9",
					"storePerson(string,int256)": "73fa34fe"
				}
			},
			"storageLayout": {
				"storage": [
					{
						"astId": 3,
						"contract": "contracts/1_Storage.sol:SimpleStorage",
						"label": "currentKey",
						"offset": 0,
						"slot": "0",
						"type": "t_uint256"
					},
					{
						"astId": 14,
						"contract": "contracts/1_Storage.sol:SimpleStorage",
						"label": "people",
						"offset": 0,
						"slot": "1",
						"type": "t_array(t_struct(People)10_storage)dyn_storage"
					},
					{
						"astId": 19,
						"contract": "contracts/1_Storage.sol:SimpleStorage",
						"label": "nameOfPeople",
						"offset": 0,
						"slot": "2",
						"type": "t_mapping(t_uint256,t_struct(People)10_storage)"
					}
				],
				"types": {
					"t_array(t_struct(People)10_storage)dyn_storage": {
						"base": "t_struct(People)10_storage",
						"encoding": "dynamic_array",
						"label": "struct SimpleStorage.People[]",
						"numberOfBytes": "32"
					},
					"t_int256": {
						"encoding": "inplace",
						"label": "int256",
						"numberOfBytes": "32"
					},
					"t_mapping(t_uint256,t_struct(People)10_storage)": {
						"encoding": "mapping",
						"key": "t_uint256",
						"label": "mapping(uint256 => struct SimpleStorage.People)",
						"numberOfBytes": "32",
						"value": "t_struct(People)10_storage"
					},
					"t_string_storage": {
						"encoding": "bytes",
						"label": "string",
						"numberOfBytes": "32"
					},
					"t_struct(People)10_storage": {
						"encoding": "inplace",
						"label": "struct SimpleStorage.People",
						"members": [
							{
								"astId": 5,
								"contract": "contracts/1_Storage.sol:SimpleStorage",
								"label": "key",
								"offset": 0,
								"slot": "0",
								"type": "t_uint256"
							},
							{
								"astId": 7,
								"contract": "contracts/1_Storage.sol:SimpleStorage",
								"label": "nameOfPeople",
								"offset": 0,
								"slot": "1",
								"type": "t_string_storage"
							},
							{
								"astId": 9,
								"contract": "contracts/1_Storage.sol:SimpleStorage",
								"label": "ageOfPeople",
								"offset": 0,
								"slot": "2",
								"type": "t_int256"
							}
						],
						"numberOfBytes": "96"
					},
					"t_uint256": {
						"encoding": "inplace",
						"label": "uint256",
						"numberOfBytes": "32"
					}
				}
			},
			"userdoc": {
				"kind": "user",
				"methods": {},
				"version": 1
			}
		}
	}
}